{
  "contractName": "CheckEffectInteraction",
  "abi": [
    {
      "inputs": [],
      "name": "deposit",
      "outputs": [],
      "stateMutability": "payable",
      "type": "function",
      "payable": true
    },
    {
      "inputs": [
        {
          "internalType": "uint256",
          "name": "amount",
          "type": "uint256"
        }
      ],
      "name": "safeWithdraw",
      "outputs": [],
      "stateMutability": "nonpayable",
      "type": "function"
    }
  ],
  "bytecode": "0x608060405234801561001057600080fd5b506104b5806100206000396000f3fe6080604052600436106100295760003560e01c8063b0fd035b1461002e578063d0e30db014610057575b600080fd5b34801561003a57600080fd5b50610055600480360381019061005091906102d2565b610061565b005b61005f61022a565b005b3273ffffffffffffffffffffffffffffffffffffffff163373ffffffffffffffffffffffffffffffffffffffff16146100cf576040517f08c379a00000000000000000000000000000000000000000000000000000000081526004016100c69061035c565b60405180910390fd5b806000803373ffffffffffffffffffffffffffffffffffffffff1673ffffffffffffffffffffffffffffffffffffffff168152602001908152602001600020541015610150576040517f08c379a0000000000000000000000000000000000000000000000000000000008152600401610147906103c8565b60405180910390fd5b600061019a6000803373ffffffffffffffffffffffffffffffffffffffff1673ffffffffffffffffffffffffffffffffffffffff1681526020019081526020016000205483610281565b9050806000803373ffffffffffffffffffffffffffffffffffffffff1673ffffffffffffffffffffffffffffffffffffffff168152602001908152602001600020819055503373ffffffffffffffffffffffffffffffffffffffff166108fc839081150290604051600060405180830381858888f19350505050158015610225573d6000803e3d6000fd5b505050565b346000803373ffffffffffffffffffffffffffffffffffffffff1673ffffffffffffffffffffffffffffffffffffffff16815260200190815260200160002060008282546102789190610417565b92505081905550565b6000818361028f919061044b565b905092915050565b600080fd5b6000819050919050565b6102af8161029c565b81146102ba57600080fd5b50565b6000813590506102cc816102a6565b92915050565b6000602082840312156102e8576102e7610297565b5b60006102f6848285016102bd565b91505092915050565b600082825260208201905092915050565b7f436f6e747261637473206e6f7420616c6c6f7765640000000000000000000000600082015250565b60006103466015836102ff565b915061035182610310565b602082019050919050565b6000602082019050818103600083015261037581610339565b9050919050565b7f496e73756666696369656e742066756e64730000000000000000000000000000600082015250565b60006103b26012836102ff565b91506103bd8261037c565b602082019050919050565b600060208201905081810360008301526103e1816103a5565b9050919050565b7f4e487b7100000000000000000000000000000000000000000000000000000000600052601160045260246000fd5b60006104228261029c565b915061042d8361029c565b9250828201905080821115610445576104446103e8565b5b92915050565b60006104568261029c565b91506104618361029c565b9250828203905081811115610479576104786103e8565b5b9291505056fea2646970667358221220ce0279d5f3ae6bb3fb8efd43723e2d4e7633a59110a1aa74fe27a592a331264f64736f6c63430008100033",
  "immutableReferences": {},
  "source": "// SPDX-License-Identifier: MIT\npragma solidity ^0.8.16;\n\nimport \"@openzeppelin/contracts/utils/math/SafeMath.sol\";\n \ncontract CheckEffectInteraction {\n \n    mapping(address=>uint) shares;\n    \n    function deposit() public payable {\n        //uint256 newBalance = SafeMath.add(shares[msg.sender], msg.value);\n        shares[msg.sender] += msg.value;\n    }\n\n    function safeWithdraw(uint256 amount) public {\n        // Checks\n        require(msg.sender == tx.origin, \"Contracts not allowed\");\n        require(shares[msg.sender] >= amount, \"Insufficient funds\");\n        // Effects\n        uint256 newBalance = SafeMath.sub(shares[msg.sender], amount);\n        shares[msg.sender] = newBalance;\n        // Interaction\n        payable((msg.sender)).transfer(amount);\n    }\n}",
  "sourcePath": "/home/isma/Desktop/code/blockchain/SolidityBestPractices/contracts/CheckEffectInteraction.sol",
  "compiler": {
    "name": "solc",
    "version": "0.8.16+commit.07a7930e.Emscripten.clang"
  },
  "schemaVersion": "3.4.9",
  "updatedAt": "2022-09-04T07:18:42.112Z",
  "networkType": "ethereum",
  "devdoc": {
    "kind": "dev",
    "methods": {},
    "version": 1
  },
  "userdoc": {
    "kind": "user",
    "methods": {},
    "version": 1
  }
}