{
  "contractName": "CheckEffectInteraction",
  "abi": [
    {
      "inputs": [],
      "name": "deposit",
      "outputs": [],
      "stateMutability": "payable",
      "type": "function",
      "payable": true
    },
    {
      "inputs": [
        {
          "internalType": "uint256",
          "name": "amount",
          "type": "uint256"
        }
      ],
      "name": "safeWithdraw",
      "outputs": [],
      "stateMutability": "nonpayable",
      "type": "function"
    },
    {
      "inputs": [],
      "name": "getBalance",
      "outputs": [
        {
          "internalType": "uint256",
          "name": "",
          "type": "uint256"
        }
      ],
      "stateMutability": "view",
      "type": "function",
      "constant": true
    }
  ],
  "bytecode": "0x608060405234801561001057600080fd5b5061055b806100206000396000f3fe6080604052600436106100345760003560e01c806312065fe014610039578063b0fd035b14610064578063d0e30db01461008d575b600080fd5b34801561004557600080fd5b5061004e610097565b60405161005b919061032c565b60405180910390f35b34801561007057600080fd5b5061008b60048036038101906100869190610378565b6100dd565b005b6100956102a6565b005b60008060003373ffffffffffffffffffffffffffffffffffffffff1673ffffffffffffffffffffffffffffffffffffffff16815260200190815260200160002054905090565b3273ffffffffffffffffffffffffffffffffffffffff163373ffffffffffffffffffffffffffffffffffffffff161461014b576040517f08c379a000000000000000000000000000000000000000000000000000000000815260040161014290610402565b60405180910390fd5b806000803373ffffffffffffffffffffffffffffffffffffffff1673ffffffffffffffffffffffffffffffffffffffff1681526020019081526020016000205410156101cc576040517f08c379a00000000000000000000000000000000000000000000000000000000081526004016101c39061046e565b60405180910390fd5b60006102166000803373ffffffffffffffffffffffffffffffffffffffff1673ffffffffffffffffffffffffffffffffffffffff16815260200190815260200160002054836102fd565b9050806000803373ffffffffffffffffffffffffffffffffffffffff1673ffffffffffffffffffffffffffffffffffffffff168152602001908152602001600020819055503373ffffffffffffffffffffffffffffffffffffffff166108fc839081150290604051600060405180830381858888f193505050501580156102a1573d6000803e3d6000fd5b505050565b346000803373ffffffffffffffffffffffffffffffffffffffff1673ffffffffffffffffffffffffffffffffffffffff16815260200190815260200160002060008282546102f491906104bd565b92505081905550565b6000818361030b91906104f1565b905092915050565b6000819050919050565b61032681610313565b82525050565b6000602082019050610341600083018461031d565b92915050565b600080fd5b61035581610313565b811461036057600080fd5b50565b6000813590506103728161034c565b92915050565b60006020828403121561038e5761038d610347565b5b600061039c84828501610363565b91505092915050565b600082825260208201905092915050565b7f436f6e747261637473206e6f7420616c6c6f7765640000000000000000000000600082015250565b60006103ec6015836103a5565b91506103f7826103b6565b602082019050919050565b6000602082019050818103600083015261041b816103df565b9050919050565b7f496e73756666696369656e742066756e64730000000000000000000000000000600082015250565b60006104586012836103a5565b915061046382610422565b602082019050919050565b600060208201905081810360008301526104878161044b565b9050919050565b7f4e487b7100000000000000000000000000000000000000000000000000000000600052601160045260246000fd5b60006104c882610313565b91506104d383610313565b92508282019050808211156104eb576104ea61048e565b5b92915050565b60006104fc82610313565b915061050783610313565b925082820390508181111561051f5761051e61048e565b5b9291505056fea26469706673582212206624ba72637191d3d097fca28b37fdc77f1d76343c93b5c941d2805fd36ac7be64736f6c63430008100033",
  "immutableReferences": {},
  "source": "// SPDX-License-Identifier: MIT\npragma solidity ^0.8.16;\n\nimport \"@openzeppelin/contracts/utils/math/SafeMath.sol\";\n \ncontract CheckEffectInteraction {\n \n    mapping(address=>uint) shares;\n    \n    function deposit() public payable {\n        //uint256 newBalance = SafeMath.add(shares[msg.sender], msg.value);\n        shares[msg.sender] += msg.value;\n    }\n\n    function safeWithdraw(uint256 amount) public {\n        // Checks\n        require(msg.sender == tx.origin, \"Contracts not allowed\");\n        require(shares[msg.sender] >= amount, \"Insufficient funds\");\n        // Effects\n        uint256 newBalance = SafeMath.sub(shares[msg.sender], amount);\n        shares[msg.sender] = newBalance;\n        // Interaction\n        payable((msg.sender)).transfer(amount);\n    }\n\n    function getBalance() public view returns (uint256) {\n        return shares[msg.sender];\n    }\n}",
  "sourcePath": "/home/isma/Desktop/code/blockchain/SolidityBestPractices/contracts/CheckEffectInteraction.sol",
  "compiler": {
    "name": "solc",
    "version": "0.8.16+commit.07a7930e.Emscripten.clang"
  },
  "schemaVersion": "3.4.9",
  "updatedAt": "2022-09-11T10:35:49.027Z",
  "networkType": "ethereum",
  "devdoc": {
    "kind": "dev",
    "methods": {},
    "version": 1
  },
  "userdoc": {
    "kind": "user",
    "methods": {},
    "version": 1
  }
}