{
  "contractName": "Employees",
  "abi": [
    {
      "inputs": [],
      "stateMutability": "nonpayable",
      "type": "constructor"
    },
    {
      "inputs": [
        {
          "internalType": "address",
          "name": "contractAddress",
          "type": "address"
        }
      ],
      "name": "authorizeContract",
      "outputs": [],
      "stateMutability": "nonpayable",
      "type": "function"
    },
    {
      "inputs": [
        {
          "internalType": "address",
          "name": "contractAddress",
          "type": "address"
        }
      ],
      "name": "deauthorizeContract",
      "outputs": [],
      "stateMutability": "nonpayable",
      "type": "function"
    },
    {
      "inputs": [
        {
          "internalType": "address",
          "name": "contractAddress",
          "type": "address"
        }
      ],
      "name": "isAuthorizedContract",
      "outputs": [
        {
          "internalType": "bool",
          "name": "",
          "type": "bool"
        }
      ],
      "stateMutability": "view",
      "type": "function",
      "constant": true
    },
    {
      "inputs": [
        {
          "internalType": "string",
          "name": "id",
          "type": "string"
        }
      ],
      "name": "isEmployeeRegistered",
      "outputs": [
        {
          "internalType": "bool",
          "name": "",
          "type": "bool"
        }
      ],
      "stateMutability": "view",
      "type": "function",
      "constant": true
    },
    {
      "inputs": [
        {
          "internalType": "string",
          "name": "id",
          "type": "string"
        },
        {
          "internalType": "bool",
          "name": "isAdmin",
          "type": "bool"
        },
        {
          "internalType": "address",
          "name": "wallet",
          "type": "address"
        }
      ],
      "name": "registerEmployee",
      "outputs": [],
      "stateMutability": "nonpayable",
      "type": "function"
    },
    {
      "inputs": [
        {
          "internalType": "string",
          "name": "id",
          "type": "string"
        }
      ],
      "name": "getEmployee",
      "outputs": [
        {
          "internalType": "address",
          "name": "",
          "type": "address"
        },
        {
          "internalType": "bool",
          "name": "",
          "type": "bool"
        },
        {
          "internalType": "bool",
          "name": "",
          "type": "bool"
        },
        {
          "internalType": "uint256",
          "name": "",
          "type": "uint256"
        },
        {
          "internalType": "uint256",
          "name": "",
          "type": "uint256"
        }
      ],
      "stateMutability": "view",
      "type": "function",
      "constant": true
    },
    {
      "inputs": [
        {
          "internalType": "string",
          "name": "id",
          "type": "string"
        }
      ],
      "name": "getEmployeeBonus",
      "outputs": [
        {
          "internalType": "uint256",
          "name": "",
          "type": "uint256"
        }
      ],
      "stateMutability": "view",
      "type": "function",
      "constant": true
    },
    {
      "inputs": [
        {
          "internalType": "string",
          "name": "id",
          "type": "string"
        },
        {
          "internalType": "uint256",
          "name": "sales",
          "type": "uint256"
        },
        {
          "internalType": "uint256",
          "name": "bonus",
          "type": "uint256"
        }
      ],
      "name": "updateEmployee",
      "outputs": [],
      "stateMutability": "nonpayable",
      "type": "function"
    }
  ],
  "bytecode": "0x608060405234801561001057600080fd5b50336000806101000a81548173ffffffffffffffffffffffffffffffffffffffff021916908373ffffffffffffffffffffffffffffffffffffffff160217905550611287806100606000396000f3fe608060405234801561001057600080fd5b50600436106100885760003560e01c80636e861c0e1161005b5780636e861c0e1461011157806385c5225c1461012d578063ea20f20a14610161578063f6f2dfcb1461019157610088565b8063228f25dc1461008d57806356b35dd5146100a957806366d0ead3146100c557806367561d93146100f5575b600080fd5b6100a760048036038101906100a29190610a87565b6101c1565b005b6100c360048036038101906100be9190610b2c565b610351565b005b6100df60048036038101906100da9190610b9b565b6104f7565b6040516100ec9190610bd7565b60405180910390f35b61010f600480360381019061010a9190610b9b565b61054d565b005b61012b60048036038101906101269190610b9b565b610636565b005b61014760048036038101906101429190610bf2565b61071f565b604051610158959493929190610c59565b60405180910390f35b61017b60048036038101906101769190610bf2565b61081e565b6040516101889190610bd7565b60405180910390f35b6101ab60048036038101906101a69190610bf2565b610856565b6040516101b89190610cac565b60405180910390f35b6001836040516101d19190610d38565b908152602001604051809103902060010160009054906101000a900460ff1615610230576040517f08c379a000000000000000000000000000000000000000000000000000000000815260040161022790610dac565b60405180910390fd5b6040518060c00160405280848152602001600115158152602001831515815260200160008152602001600081526020018273ffffffffffffffffffffffffffffffffffffffff1681525060018460405161028a9190610d38565b908152602001604051809103902060008201518160000190816102ad9190610fd8565b5060208201518160010160006101000a81548160ff02191690831515021790555060408201518160010160016101000a81548160ff021916908315150217905550606082015181600201556080820151816003015560a08201518160040160006101000a81548173ffffffffffffffffffffffffffffffffffffffff021916908373ffffffffffffffffffffffffffffffffffffffff160217905550905050505050565b60011515600260003373ffffffffffffffffffffffffffffffffffffffff1673ffffffffffffffffffffffffffffffffffffffff16815260200190815260200160002060009054906101000a900460ff161515146103e4576040517f08c379a00000000000000000000000000000000000000000000000000000000081526004016103db906110f6565b60405180910390fd5b6001836040516103f49190610d38565b908152602001604051809103902060010160009054906101000a900460ff16610452576040517f08c379a000000000000000000000000000000000000000000000000000000000815260040161044990611162565b60405180910390fd5b61047d6001846040516104659190610d38565b90815260200160405180910390206002015483610881565b60018460405161048d9190610d38565b9081526020016040518091039020600201819055506104cd6001846040516104b59190610d38565b90815260200160405180910390206003015482610881565b6001846040516104dd9190610d38565b908152602001604051809103902060030181905550505050565b6000600260008373ffffffffffffffffffffffffffffffffffffffff1673ffffffffffffffffffffffffffffffffffffffff16815260200190815260200160002060009054906101000a900460ff169050919050565b60008054906101000a900473ffffffffffffffffffffffffffffffffffffffff1673ffffffffffffffffffffffffffffffffffffffff163373ffffffffffffffffffffffffffffffffffffffff16146105db576040517f08c379a00000000000000000000000000000000000000000000000000000000081526004016105d2906111ce565b60405180910390fd5b6001600260008373ffffffffffffffffffffffffffffffffffffffff1673ffffffffffffffffffffffffffffffffffffffff16815260200190815260200160002060006101000a81548160ff02191690831515021790555050565b60008054906101000a900473ffffffffffffffffffffffffffffffffffffffff1673ffffffffffffffffffffffffffffffffffffffff163373ffffffffffffffffffffffffffffffffffffffff16146106c4576040517f08c379a00000000000000000000000000000000000000000000000000000000081526004016106bb906111ce565b60405180910390fd5b6000600260008373ffffffffffffffffffffffffffffffffffffffff1673ffffffffffffffffffffffffffffffffffffffff16815260200190815260200160002060006101000a81548160ff02191690831515021790555050565b60008060008060006001866040516107379190610d38565b908152602001604051809103902060040160009054906101000a900473ffffffffffffffffffffffffffffffffffffffff166001876040516107799190610d38565b908152602001604051809103902060010160009054906101000a900460ff166001886040516107a89190610d38565b908152602001604051809103902060010160019054906101000a900460ff166001896040516107d79190610d38565b90815260200160405180910390206002015460018a6040516107f99190610d38565b9081526020016040518091039020600301549450945094509450945091939590929450565b60006001826040516108309190610d38565b908152602001604051809103902060010160009054906101000a900460ff169050919050565b60006001826040516108689190610d38565b9081526020016040518091039020600301549050919050565b6000818361088f919061121d565b905092915050565b6000604051905090565b600080fd5b600080fd5b600080fd5b600080fd5b6000601f19601f8301169050919050565b7f4e487b7100000000000000000000000000000000000000000000000000000000600052604160045260246000fd5b6108fe826108b5565b810181811067ffffffffffffffff8211171561091d5761091c6108c6565b5b80604052505050565b6000610930610897565b905061093c82826108f5565b919050565b600067ffffffffffffffff82111561095c5761095b6108c6565b5b610965826108b5565b9050602081019050919050565b82818337600083830152505050565b600061099461098f84610941565b610926565b9050828152602081018484840111156109b0576109af6108b0565b5b6109bb848285610972565b509392505050565b600082601f8301126109d8576109d76108ab565b5b81356109e8848260208601610981565b91505092915050565b60008115159050919050565b610a06816109f1565b8114610a1157600080fd5b50565b600081359050610a23816109fd565b92915050565b600073ffffffffffffffffffffffffffffffffffffffff82169050919050565b6000610a5482610a29565b9050919050565b610a6481610a49565b8114610a6f57600080fd5b50565b600081359050610a8181610a5b565b92915050565b600080600060608486031215610aa057610a9f6108a1565b5b600084013567ffffffffffffffff811115610abe57610abd6108a6565b5b610aca868287016109c3565b9350506020610adb86828701610a14565b9250506040610aec86828701610a72565b9150509250925092565b6000819050919050565b610b0981610af6565b8114610b1457600080fd5b50565b600081359050610b2681610b00565b92915050565b600080600060608486031215610b4557610b446108a1565b5b600084013567ffffffffffffffff811115610b6357610b626108a6565b5b610b6f868287016109c3565b9350506020610b8086828701610b17565b9250506040610b9186828701610b17565b9150509250925092565b600060208284031215610bb157610bb06108a1565b5b6000610bbf84828501610a72565b91505092915050565b610bd1816109f1565b82525050565b6000602082019050610bec6000830184610bc8565b92915050565b600060208284031215610c0857610c076108a1565b5b600082013567ffffffffffffffff811115610c2657610c256108a6565b5b610c32848285016109c3565b91505092915050565b610c4481610a49565b82525050565b610c5381610af6565b82525050565b600060a082019050610c6e6000830188610c3b565b610c7b6020830187610bc8565b610c886040830186610bc8565b610c956060830185610c4a565b610ca26080830184610c4a565b9695505050505050565b6000602082019050610cc16000830184610c4a565b92915050565b600081519050919050565b600081905092915050565b60005b83811015610cfb578082015181840152602081019050610ce0565b60008484015250505050565b6000610d1282610cc7565b610d1c8185610cd2565b9350610d2c818560208601610cdd565b80840191505092915050565b6000610d448284610d07565b915081905092915050565b600082825260208201905092915050565b7f456d706c6f79656520697320616c726561647920726567697374657265642e00600082015250565b6000610d96601f83610d4f565b9150610da182610d60565b602082019050919050565b60006020820190508181036000830152610dc581610d89565b9050919050565b7f4e487b7100000000000000000000000000000000000000000000000000000000600052602260045260246000fd5b60006002820490506001821680610e1357607f821691505b602082108103610e2657610e25610dcc565b5b50919050565b60008190508160005260206000209050919050565b60006020601f8301049050919050565b600082821b905092915050565b600060088302610e8e7fffffffffffffffffffffffffffffffffffffffffffffffffffffffffffffffff82610e51565b610e988683610e51565b95508019841693508086168417925050509392505050565b6000819050919050565b6000610ed5610ed0610ecb84610af6565b610eb0565b610af6565b9050919050565b6000819050919050565b610eef83610eba565b610f03610efb82610edc565b848454610e5e565b825550505050565b600090565b610f18610f0b565b610f23818484610ee6565b505050565b5b81811015610f4757610f3c600082610f10565b600181019050610f29565b5050565b601f821115610f8c57610f5d81610e2c565b610f6684610e41565b81016020851015610f75578190505b610f89610f8185610e41565b830182610f28565b50505b505050565b600082821c905092915050565b6000610faf60001984600802610f91565b1980831691505092915050565b6000610fc88383610f9e565b9150826002028217905092915050565b610fe182610cc7565b67ffffffffffffffff811115610ffa57610ff96108c6565b5b6110048254610dfb565b61100f828285610f4b565b600060209050601f8311600181146110425760008415611030578287015190505b61103a8582610fbc565b8655506110a2565b601f19841661105086610e2c565b60005b8281101561107857848901518255600182019150602085019450602081019050611053565b868310156110955784890151611091601f891682610f9e565b8355505b6001600288020188555050505b505050505050565b7f4e6f7420616e20617574686f72697a656420636f6e74726163742063616c6c00600082015250565b60006110e0601f83610d4f565b91506110eb826110aa565b602082019050919050565b6000602082019050818103600083015261110f816110d3565b9050919050565b7f456d706c6f796565206973206e6f7420726567697374657265642e0000000000600082015250565b600061114c601b83610d4f565b915061115782611116565b602082019050919050565b6000602082019050818103600083015261117b8161113f565b9050919050565b7f43616c6c6572206973206e6f7420636f6e7472616374206f776e657200000000600082015250565b60006111b8601c83610d4f565b91506111c382611182565b602082019050919050565b600060208201905081810360008301526111e7816111ab565b9050919050565b7f4e487b7100000000000000000000000000000000000000000000000000000000600052601160045260246000fd5b600061122882610af6565b915061123383610af6565b925082820190508082111561124b5761124a6111ee565b5b9291505056fea264697066735822122023b57035ec23b87f975c154c88e5be6c6e22fcd32580b43c28d74a38fe432b0d64736f6c63430008100033",
  "immutableReferences": {},
  "source": "// SPDX-License-Identifier: MIT\npragma solidity ^0.8.16;\n\nimport \"@openzeppelin/contracts/utils/math/SafeMath.sol\";\n\ncontract Employees {\n\n    using SafeMath for uint256; \n\n    struct Profile {\n        string id;\n        bool isRegistered;\n        bool isAdmin;\n        uint256 sales;\n        uint256 bonus;\n        address wallet;\n    }\n\n    address private contractOwner;                  // Account used to deploy contract\n    mapping(string => Profile) employees;\n    mapping(address => bool) private authorized;\n\n    constructor () {\n        contractOwner = msg.sender;\n    }\n\n    modifier isCallerAuthrized() {\n        require(authorized[msg.sender] == true, \"Not an authorized contract call\");\n        _;\n    }\n\n    modifier requireContractOwner() {\n        require(msg.sender == contractOwner, \"Caller is not contract owner\");\n        _;\n    }\n\n    function authorizeContract(address contractAddress) external requireContractOwner {\n        authorized[contractAddress] = true;\n    }\n\n    function deauthorizeContract(address contractAddress) external requireContractOwner {\n        authorized[contractAddress] = false;\n    }\n\n    function isAuthorizedContract(address contractAddress) external view returns(bool) {\n        return authorized[contractAddress];\n    }\n\n    function isEmployeeRegistered (string memory id) external view returns(bool) {\n        return employees[id].isRegistered;\n    }\n\n   function registerEmployee (string memory id, bool isAdmin, address wallet ) external {\n        require(!employees[id].isRegistered, \"Employee is already registered.\");\n        employees[id] = Profile({   id: id,\n                                    isRegistered: true,\n                                    isAdmin: isAdmin,\n                                    sales: 0,\n                                    bonus: 0,\n                                    wallet: wallet\n                                });\n    }\n\n    function getEmployee (string memory id) external view returns(address, bool, bool, uint256, uint256) {\n        return (employees[id].wallet, employees[id].isRegistered, employees[id].isAdmin, employees[id].sales, employees[id].bonus);\n    }\n\n    function getEmployeeBonus (string memory id ) external view returns(uint256) {\n        return employees[id].bonus;\n    }\n\n    function updateEmployee (string memory id, uint256 sales, uint256 bonus ) external isCallerAuthrized {\n        require(employees[id].isRegistered, \"Employee is not registered.\");\n        employees[id].sales = SafeMath.add(employees[id].sales, sales);\n        employees[id].bonus = SafeMath.add(employees[id].bonus, bonus);\n\n    }\n}",
  "sourcePath": "/home/isma/Desktop/code/blockchain/SolidityBestPractices/contracts/SplitAppData/Employees.sol",
  "compiler": {
    "name": "solc",
    "version": "0.8.16+commit.07a7930e.Emscripten.clang"
  },
  "schemaVersion": "3.4.9",
  "updatedAt": "2022-09-11T10:35:49.035Z",
  "networkType": "ethereum",
  "devdoc": {
    "kind": "dev",
    "methods": {},
    "version": 1
  },
  "userdoc": {
    "kind": "user",
    "methods": {},
    "version": 1
  }
}