{
  "contractName": "EmployeesApp",
  "abi": [
    {
      "inputs": [
        {
          "internalType": "address",
          "name": "dataContract",
          "type": "address"
        }
      ],
      "stateMutability": "nonpayable",
      "type": "constructor"
    },
    {
      "inputs": [
        {
          "internalType": "string",
          "name": "id",
          "type": "string"
        },
        {
          "internalType": "uint256",
          "name": "amount",
          "type": "uint256"
        }
      ],
      "name": "addSale",
      "outputs": [],
      "stateMutability": "nonpayable",
      "type": "function"
    }
  ],
  "bytecode": "0x608060405234801561001057600080fd5b5060405161066b38038061066b833981810160405281019061003291906100db565b806000806101000a81548173ffffffffffffffffffffffffffffffffffffffff021916908373ffffffffffffffffffffffffffffffffffffffff16021790555050610108565b600080fd5b600073ffffffffffffffffffffffffffffffffffffffff82169050919050565b60006100a88261007d565b9050919050565b6100b88161009d565b81146100c357600080fd5b50565b6000815190506100d5816100af565b92915050565b6000602082840312156100f1576100f0610078565b5b60006100ff848285016100c6565b91505092915050565b610554806101176000396000f3fe608060405234801561001057600080fd5b506004361061002b5760003560e01c80635cd25e5314610030575b600080fd5b61004a6004803603810190610045919061030d565b61004c565b005b60008054906101000a900473ffffffffffffffffffffffffffffffffffffffff1673ffffffffffffffffffffffffffffffffffffffff166356b35dd58383610093856100e7565b6040518463ffffffff1660e01b81526004016100b1939291906103f7565b600060405180830381600087803b1580156100cb57600080fd5b505af11580156100df573d6000803e3d6000fd5b505050505050565b6000606482101561010e57610107610100836005610151565b6064610167565b905061014c565b6101f48210156101345761012d610126836007610151565b6064610167565b905061014c565b61014961014283600a610151565b6064610167565b90505b919050565b6000818361015f9190610464565b905092915050565b6000818361017591906104ed565b905092915050565b6000604051905090565b600080fd5b600080fd5b600080fd5b600080fd5b6000601f19601f8301169050919050565b7f4e487b7100000000000000000000000000000000000000000000000000000000600052604160045260246000fd5b6101e48261019b565b810181811067ffffffffffffffff82111715610203576102026101ac565b5b80604052505050565b600061021661017d565b905061022282826101db565b919050565b600067ffffffffffffffff821115610242576102416101ac565b5b61024b8261019b565b9050602081019050919050565b82818337600083830152505050565b600061027a61027584610227565b61020c565b90508281526020810184848401111561029657610295610196565b5b6102a1848285610258565b509392505050565b600082601f8301126102be576102bd610191565b5b81356102ce848260208601610267565b91505092915050565b6000819050919050565b6102ea816102d7565b81146102f557600080fd5b50565b600081359050610307816102e1565b92915050565b6000806040838503121561032457610323610187565b5b600083013567ffffffffffffffff8111156103425761034161018c565b5b61034e858286016102a9565b925050602061035f858286016102f8565b9150509250929050565b600081519050919050565b600082825260208201905092915050565b60005b838110156103a3578082015181840152602081019050610388565b60008484015250505050565b60006103ba82610369565b6103c48185610374565b93506103d4818560208601610385565b6103dd8161019b565b840191505092915050565b6103f1816102d7565b82525050565b6000606082019050818103600083015261041181866103af565b905061042060208301856103e8565b61042d60408301846103e8565b949350505050565b7f4e487b7100000000000000000000000000000000000000000000000000000000600052601160045260246000fd5b600061046f826102d7565b915061047a836102d7565b9250817fffffffffffffffffffffffffffffffffffffffffffffffffffffffffffffffff04831182151516156104b3576104b2610435565b5b828202905092915050565b7f4e487b7100000000000000000000000000000000000000000000000000000000600052601260045260246000fd5b60006104f8826102d7565b9150610503836102d7565b925082610513576105126104be565b5b82820490509291505056fea2646970667358221220a363e0e4d17f10c45c500ccc50799851e99365aa24ebf192988ee5e368efd35e64736f6c63430008100033",
  "immutableReferences": {},
  "source": "// SPDX-License-Identifier: MIT\npragma solidity ^0.8.16;\n\nimport \"@openzeppelin/contracts/utils/math/SafeMath.sol\";\nimport \"./Employees.sol\";\n\ncontract EmployeesApp {\n\n    using SafeMath for uint256;   \n    Employees employees;\n\n    constructor (address dataContract) {\n        employees = Employees(dataContract);\n    }\n\n    function calculateBonus ( uint256 sales ) internal pure returns(uint256) {\n        if (sales < 100) {\n            return SafeMath.div(SafeMath.mul(sales, 5), 100);\n        }\n        else if (sales < 500) {\n            return SafeMath.div(SafeMath.mul(sales, 7), 100);\n        }\n        else {\n            return SafeMath.div(SafeMath.mul(sales, 10), 100);\n        }\n    }\n\n    function addSale (string memory id, uint256 amount ) external {\n        employees.updateEmployee(id, amount, calculateBonus(amount));\n    }\n}",
  "sourcePath": "/home/isma/Desktop/code/blockchain/SolidityBestPractices/contracts/SplitAppData/EmployeesApp.sol",
  "compiler": {
    "name": "solc",
    "version": "0.8.16+commit.07a7930e.Emscripten.clang"
  },
  "schemaVersion": "3.4.9",
  "updatedAt": "2022-09-10T05:26:12.434Z",
  "devdoc": {
    "kind": "dev",
    "methods": {},
    "version": 1
  },
  "userdoc": {
    "kind": "user",
    "methods": {},
    "version": 1
  }
}