{
  "contractName": "Employees",
  "abi": [
    {
      "inputs": [],
      "stateMutability": "nonpayable",
      "type": "constructor"
    },
    {
      "inputs": [
        {
          "internalType": "string",
          "name": "id",
          "type": "string"
        }
      ],
      "name": "isEmployeeRegistered",
      "outputs": [
        {
          "internalType": "bool",
          "name": "",
          "type": "bool"
        }
      ],
      "stateMutability": "view",
      "type": "function",
      "constant": true
    },
    {
      "inputs": [
        {
          "internalType": "string",
          "name": "id",
          "type": "string"
        },
        {
          "internalType": "bool",
          "name": "isAdmin",
          "type": "bool"
        },
        {
          "internalType": "address",
          "name": "wallet",
          "type": "address"
        }
      ],
      "name": "registerEmployee",
      "outputs": [],
      "stateMutability": "nonpayable",
      "type": "function"
    },
    {
      "inputs": [
        {
          "internalType": "string",
          "name": "id",
          "type": "string"
        }
      ],
      "name": "getEmployeeBonus",
      "outputs": [
        {
          "internalType": "uint256",
          "name": "",
          "type": "uint256"
        }
      ],
      "stateMutability": "view",
      "type": "function",
      "constant": true
    },
    {
      "inputs": [
        {
          "internalType": "string",
          "name": "id",
          "type": "string"
        },
        {
          "internalType": "uint256",
          "name": "amount",
          "type": "uint256"
        }
      ],
      "name": "addSale",
      "outputs": [],
      "stateMutability": "nonpayable",
      "type": "function"
    }
  ],
  "bytecode": "0x608060405234801561001057600080fd5b50336000806101000a81548173ffffffffffffffffffffffffffffffffffffffff021916908373ffffffffffffffffffffffffffffffffffffffff160217905550611116806100606000396000f3fe608060405234801561001057600080fd5b506004361061004c5760003560e01c8063228f25dc146100515780635cd25e531461006d578063ea20f20a14610089578063f6f2dfcb146100b9575b600080fd5b61006b6004803603810190610066919061096a565b6100e9565b005b61008760048036038101906100829190610a0f565b610307565b005b6100a3600480360381019061009e9190610a6b565b6103ac565b6040516100b09190610ac3565b60405180910390f35b6100d360048036038101906100ce9190610a6b565b6103e4565b6040516100e09190610aed565b60405180910390f35b60008054906101000a900473ffffffffffffffffffffffffffffffffffffffff1673ffffffffffffffffffffffffffffffffffffffff163373ffffffffffffffffffffffffffffffffffffffff1614610177576040517f08c379a000000000000000000000000000000000000000000000000000000000815260040161016e90610b65565b60405180910390fd5b6001836040516101879190610bf6565b908152602001604051809103902060010160009054906101000a900460ff16156101e6576040517f08c379a00000000000000000000000000000000000000000000000000000000081526004016101dd90610c59565b60405180910390fd5b6040518060c00160405280848152602001600115158152602001831515815260200160008152602001600081526020018273ffffffffffffffffffffffffffffffffffffffff168152506001846040516102409190610bf6565b908152602001604051809103902060008201518160000190816102639190610e85565b5060208201518160010160006101000a81548160ff02191690831515021790555060408201518160010160016101000a81548160ff021916908315150217905550606082015181600201556080820151816003015560a08201518160040160006101000a81548173ffffffffffffffffffffffffffffffffffffffff021916908373ffffffffffffffffffffffffffffffffffffffff160217905550905050505050565b60008054906101000a900473ffffffffffffffffffffffffffffffffffffffff1673ffffffffffffffffffffffffffffffffffffffff163373ffffffffffffffffffffffffffffffffffffffff1614610395576040517f08c379a000000000000000000000000000000000000000000000000000000000815260040161038c90610b65565b60405180910390fd5b6103a882826103a38461049e565b610597565b5050565b60006001826040516103be9190610bf6565b908152602001604051809103902060010160009054906101000a900460ff169050919050565b60008060009054906101000a900473ffffffffffffffffffffffffffffffffffffffff1673ffffffffffffffffffffffffffffffffffffffff163373ffffffffffffffffffffffffffffffffffffffff1614610475576040517f08c379a000000000000000000000000000000000000000000000000000000000815260040161046c90610b65565b60405180910390fd5b6001826040516104859190610bf6565b9081526020016040518091039020600301549050919050565b60008060009054906101000a900473ffffffffffffffffffffffffffffffffffffffff1673ffffffffffffffffffffffffffffffffffffffff163373ffffffffffffffffffffffffffffffffffffffff161461052f576040517f08c379a000000000000000000000000000000000000000000000000000000000815260040161052690610b65565b60405180910390fd5b60648210156105545761054d610546836005610738565b606461074e565b9050610592565b6101f482101561057a5761057361056c836007610738565b606461074e565b9050610592565b61058f61058883600a610738565b606461074e565b90505b919050565b60008054906101000a900473ffffffffffffffffffffffffffffffffffffffff1673ffffffffffffffffffffffffffffffffffffffff163373ffffffffffffffffffffffffffffffffffffffff1614610625576040517f08c379a000000000000000000000000000000000000000000000000000000000815260040161061c90610b65565b60405180910390fd5b6001836040516106359190610bf6565b908152602001604051809103902060010160009054906101000a900460ff16610693576040517f08c379a000000000000000000000000000000000000000000000000000000000815260040161068a90610fa3565b60405180910390fd5b6106be6001846040516106a69190610bf6565b90815260200160405180910390206002015483610764565b6001846040516106ce9190610bf6565b90815260200160405180910390206002018190555061070e6001846040516106f69190610bf6565b90815260200160405180910390206003015482610764565b60018460405161071e9190610bf6565b908152602001604051809103902060030181905550505050565b600081836107469190610ff2565b905092915050565b6000818361075c919061107b565b905092915050565b6000818361077291906110ac565b905092915050565b6000604051905090565b600080fd5b600080fd5b600080fd5b600080fd5b6000601f19601f8301169050919050565b7f4e487b7100000000000000000000000000000000000000000000000000000000600052604160045260246000fd5b6107e182610798565b810181811067ffffffffffffffff82111715610800576107ff6107a9565b5b80604052505050565b600061081361077a565b905061081f82826107d8565b919050565b600067ffffffffffffffff82111561083f5761083e6107a9565b5b61084882610798565b9050602081019050919050565b82818337600083830152505050565b600061087761087284610824565b610809565b90508281526020810184848401111561089357610892610793565b5b61089e848285610855565b509392505050565b600082601f8301126108bb576108ba61078e565b5b81356108cb848260208601610864565b91505092915050565b60008115159050919050565b6108e9816108d4565b81146108f457600080fd5b50565b600081359050610906816108e0565b92915050565b600073ffffffffffffffffffffffffffffffffffffffff82169050919050565b60006109378261090c565b9050919050565b6109478161092c565b811461095257600080fd5b50565b6000813590506109648161093e565b92915050565b60008060006060848603121561098357610982610784565b5b600084013567ffffffffffffffff8111156109a1576109a0610789565b5b6109ad868287016108a6565b93505060206109be868287016108f7565b92505060406109cf86828701610955565b9150509250925092565b6000819050919050565b6109ec816109d9565b81146109f757600080fd5b50565b600081359050610a09816109e3565b92915050565b60008060408385031215610a2657610a25610784565b5b600083013567ffffffffffffffff811115610a4457610a43610789565b5b610a50858286016108a6565b9250506020610a61858286016109fa565b9150509250929050565b600060208284031215610a8157610a80610784565b5b600082013567ffffffffffffffff811115610a9f57610a9e610789565b5b610aab848285016108a6565b91505092915050565b610abd816108d4565b82525050565b6000602082019050610ad86000830184610ab4565b92915050565b610ae7816109d9565b82525050565b6000602082019050610b026000830184610ade565b92915050565b600082825260208201905092915050565b7f43616c6c6572206973206e6f7420636f6e7472616374206f776e657200000000600082015250565b6000610b4f601c83610b08565b9150610b5a82610b19565b602082019050919050565b60006020820190508181036000830152610b7e81610b42565b9050919050565b600081519050919050565b600081905092915050565b60005b83811015610bb9578082015181840152602081019050610b9e565b60008484015250505050565b6000610bd082610b85565b610bda8185610b90565b9350610bea818560208601610b9b565b80840191505092915050565b6000610c028284610bc5565b915081905092915050565b7f456d706c6f79656520697320616c726561647920726567697374657265642e00600082015250565b6000610c43601f83610b08565b9150610c4e82610c0d565b602082019050919050565b60006020820190508181036000830152610c7281610c36565b9050919050565b7f4e487b7100000000000000000000000000000000000000000000000000000000600052602260045260246000fd5b60006002820490506001821680610cc057607f821691505b602082108103610cd357610cd2610c79565b5b50919050565b60008190508160005260206000209050919050565b60006020601f8301049050919050565b600082821b905092915050565b600060088302610d3b7fffffffffffffffffffffffffffffffffffffffffffffffffffffffffffffffff82610cfe565b610d458683610cfe565b95508019841693508086168417925050509392505050565b6000819050919050565b6000610d82610d7d610d78846109d9565b610d5d565b6109d9565b9050919050565b6000819050919050565b610d9c83610d67565b610db0610da882610d89565b848454610d0b565b825550505050565b600090565b610dc5610db8565b610dd0818484610d93565b505050565b5b81811015610df457610de9600082610dbd565b600181019050610dd6565b5050565b601f821115610e3957610e0a81610cd9565b610e1384610cee565b81016020851015610e22578190505b610e36610e2e85610cee565b830182610dd5565b50505b505050565b600082821c905092915050565b6000610e5c60001984600802610e3e565b1980831691505092915050565b6000610e758383610e4b565b9150826002028217905092915050565b610e8e82610b85565b67ffffffffffffffff811115610ea757610ea66107a9565b5b610eb18254610ca8565b610ebc828285610df8565b600060209050601f831160018114610eef5760008415610edd578287015190505b610ee78582610e69565b865550610f4f565b601f198416610efd86610cd9565b60005b82811015610f2557848901518255600182019150602085019450602081019050610f00565b86831015610f425784890151610f3e601f891682610e4b565b8355505b6001600288020188555050505b505050505050565b7f456d706c6f796565206973206e6f7420726567697374657265642e0000000000600082015250565b6000610f8d601b83610b08565b9150610f9882610f57565b602082019050919050565b60006020820190508181036000830152610fbc81610f80565b9050919050565b7f4e487b7100000000000000000000000000000000000000000000000000000000600052601160045260246000fd5b6000610ffd826109d9565b9150611008836109d9565b9250817fffffffffffffffffffffffffffffffffffffffffffffffffffffffffffffffff048311821515161561104157611040610fc3565b5b828202905092915050565b7f4e487b7100000000000000000000000000000000000000000000000000000000600052601260045260246000fd5b6000611086826109d9565b9150611091836109d9565b9250826110a1576110a061104c565b5b828204905092915050565b60006110b7826109d9565b91506110c2836109d9565b92508282019050808211156110da576110d9610fc3565b5b9291505056fea2646970667358221220497a0b968721a1331bb4dba8f3457cb9cfb601d8daffb361b163a8a09e6c506664736f6c63430008100033",
  "immutableReferences": {},
  "source": "// SPDX-License-Identifier: MIT\npragma solidity ^0.8.16;\n\n// It's important to avoid vulnerabilities due to numeric overflow bugs\n// OpenZeppelin's SafeMath library, when used correctly, protects agains such bugs\n// More info: https://www.nccgroup.trust/us/about-us/newsroom-and-events/blog/2018/november/smart-contract-insecurity-bad-arithmetic/\n\nimport \"@openzeppelin/contracts/utils/math/SafeMath.sol\";\n\n\ncontract Employees {\n    using SafeMath for uint256; // Allow SafeMath functions to be called for all uint256 types (similar to \"prototype\" in Javascript)\n\n    /********************************************************************************************/\n    /*                                       DATA VARIABLES                                     */\n    /********************************************************************************************/\n\n    struct Profile {\n        string id;\n        bool isRegistered;\n        bool isAdmin;\n        uint256 sales;\n        uint256 bonus;\n        address wallet;\n    }\n\n    address private contractOwner;              // Account used to deploy contract\n    mapping(string => Profile) employees;      // Mapping for storing employees\n\n    /********************************************************************************************/\n    /*                                       EVENT DEFINITIONS                                  */\n    /********************************************************************************************/\n\n    // No events\n\n    /**\n    * @dev Constructor\n    * The deploying account becomes contractOwner\n    */\n    constructor () {\n        contractOwner = msg.sender;\n    }\n\n    /********************************************************************************************/\n    /*                                       FUNCTION MODIFIERS                                 */\n    /********************************************************************************************/\n\n    // Modifiers help avoid duplication of code. They are typically used to validate something\n    // before a function is allowed to be executed.\n\n    /**\n    * @dev Modifier that requires the \"ContractOwner\" account to be the function caller\n    */\n    modifier requireContractOwner() {\n        require(msg.sender == contractOwner, \"Caller is not contract owner\");\n        _;\n    }\n\n    /********************************************************************************************/\n    /*                                       UTILITY FUNCTIONS                                  */\n    /********************************************************************************************/\n\n   /**\n    * @dev Check if an employee is registered\n    *\n    * @return A bool that indicates if the employee is registered\n    */   \n    function isEmployeeRegistered (string memory id) external view returns(bool) {\n        return employees[id].isRegistered;\n    }\n\n    /********************************************************************************************/\n    /*                                     SMART CONTRACT FUNCTIONS                             */\n    /********************************************************************************************/\n\n    function registerEmployee (string memory id, bool isAdmin, address wallet ) external requireContractOwner {\n        require(!employees[id].isRegistered, \"Employee is already registered.\");\n        employees[id] = Profile({   id: id,\n                                    isRegistered: true,\n                                    isAdmin: isAdmin,\n                                    sales: 0,\n                                    bonus: 0,\n                                    wallet: wallet\n                                });\n    }\n\n    function getEmployeeBonus (string memory id ) external view requireContractOwner returns(uint256) {\n        return employees[id].bonus;\n    }\n\n    function updateEmployee (string memory id, uint256 sales, uint256 bonus ) internal requireContractOwner {\n        require(employees[id].isRegistered, \"Employee is not registered.\");\n        employees[id].sales = SafeMath.add(employees[id].sales, sales);\n        employees[id].bonus = SafeMath.add(employees[id].bonus, bonus);\n\n    }\n\n    function calculateBonus ( uint256 sales ) internal view requireContractOwner returns(uint256) {\n        if (sales < 100) {\n            return SafeMath.div(SafeMath.mul(sales, 5), 100);\n        }\n        else if (sales < 500) {\n            return SafeMath.div(SafeMath.mul(sales, 7), 100);\n        }\n        else {\n            return SafeMath.div(SafeMath.mul(sales, 10), 100);\n        }\n    }\n\n    function addSale (string memory id, uint256 amount ) external requireContractOwner {\n        updateEmployee( id, amount, calculateBonus(amount) );\n    }\n}",
  "sourcePath": "/home/isma/Desktop/code/blockchain/SolidityBestPractices/contracts/SplitAppData/Employees.sol",
  "compiler": {
    "name": "solc",
    "version": "0.8.16+commit.07a7930e.Emscripten.clang"
  },
  "schemaVersion": "3.4.9",
  "updatedAt": "2022-09-04T07:18:42.120Z",
  "networkType": "ethereum",
  "devdoc": {
    "kind": "dev",
    "methods": {
      "constructor": {
        "details": "Constructor The deploying account becomes contractOwner"
      },
      "isEmployeeRegistered(string)": {
        "details": "Check if an employee is registered",
        "returns": {
          "_0": "A bool that indicates if the employee is registered"
        }
      }
    },
    "version": 1
  },
  "userdoc": {
    "kind": "user",
    "methods": {},
    "version": 1
  }
}