{
  "contractName": "Employees",
  "abi": [
    {
      "inputs": [],
      "stateMutability": "nonpayable",
      "type": "constructor"
    },
    {
      "inputs": [
        {
          "internalType": "address",
          "name": "contractAddress",
          "type": "address"
        }
      ],
      "name": "authorizeContract",
      "outputs": [],
      "stateMutability": "nonpayable",
      "type": "function"
    },
    {
      "inputs": [
        {
          "internalType": "address",
          "name": "contractAddress",
          "type": "address"
        }
      ],
      "name": "deauthorizeContract",
      "outputs": [],
      "stateMutability": "nonpayable",
      "type": "function"
    },
    {
      "inputs": [
        {
          "internalType": "address",
          "name": "contractAddress",
          "type": "address"
        }
      ],
      "name": "isAuthorizedContract",
      "outputs": [
        {
          "internalType": "bool",
          "name": "",
          "type": "bool"
        }
      ],
      "stateMutability": "view",
      "type": "function"
    },
    {
      "inputs": [
        {
          "internalType": "string",
          "name": "id",
          "type": "string"
        }
      ],
      "name": "isEmployeeRegistered",
      "outputs": [
        {
          "internalType": "bool",
          "name": "",
          "type": "bool"
        }
      ],
      "stateMutability": "view",
      "type": "function"
    },
    {
      "inputs": [
        {
          "internalType": "string",
          "name": "id",
          "type": "string"
        },
        {
          "internalType": "bool",
          "name": "isAdmin",
          "type": "bool"
        },
        {
          "internalType": "address",
          "name": "wallet",
          "type": "address"
        }
      ],
      "name": "registerEmployee",
      "outputs": [],
      "stateMutability": "nonpayable",
      "type": "function"
    },
    {
      "inputs": [
        {
          "internalType": "string",
          "name": "id",
          "type": "string"
        }
      ],
      "name": "getEmployee",
      "outputs": [
        {
          "internalType": "address",
          "name": "",
          "type": "address"
        },
        {
          "internalType": "bool",
          "name": "",
          "type": "bool"
        },
        {
          "internalType": "bool",
          "name": "",
          "type": "bool"
        },
        {
          "internalType": "uint256",
          "name": "",
          "type": "uint256"
        },
        {
          "internalType": "uint256",
          "name": "",
          "type": "uint256"
        }
      ],
      "stateMutability": "view",
      "type": "function"
    },
    {
      "inputs": [
        {
          "internalType": "string",
          "name": "id",
          "type": "string"
        }
      ],
      "name": "getEmployeeBonus",
      "outputs": [
        {
          "internalType": "uint256",
          "name": "",
          "type": "uint256"
        }
      ],
      "stateMutability": "view",
      "type": "function"
    },
    {
      "inputs": [
        {
          "internalType": "string",
          "name": "id",
          "type": "string"
        },
        {
          "internalType": "uint256",
          "name": "sales",
          "type": "uint256"
        },
        {
          "internalType": "uint256",
          "name": "bonus",
          "type": "uint256"
        }
      ],
      "name": "updateEmployee",
      "outputs": [],
      "stateMutability": "nonpayable",
      "type": "function"
    }
  ],
  "bytecode": "0x608060405234801561001057600080fd5b50336000806101000a81548173ffffffffffffffffffffffffffffffffffffffff021916908373ffffffffffffffffffffffffffffffffffffffff1602179055506113ad806100606000396000f3fe608060405234801561001057600080fd5b50600436106100885760003560e01c80636e861c0e1161005b5780636e861c0e1461011157806385c5225c1461012d578063ea20f20a14610161578063f6f2dfcb1461019157610088565b8063228f25dc1461008d57806356b35dd5146100a957806366d0ead3146100c557806367561d93146100f5575b600080fd5b6100a760048036038101906100a29190610bad565b6101c1565b005b6100c360048036038101906100be9190610c52565b6103e4565b005b6100df60048036038101906100da9190610cc1565b61058a565b6040516100ec9190610cfd565b60405180910390f35b61010f600480360381019061010a9190610cc1565b6105e0565b005b61012b60048036038101906101269190610cc1565b6106c9565b005b61014760048036038101906101429190610d18565b6107b2565b604051610158959493929190610d7f565b60405180910390f35b61017b60048036038101906101769190610d18565b6108b1565b6040516101889190610cfd565b60405180910390f35b6101ab60048036038101906101a69190610d18565b6108e9565b6040516101b89190610dd2565b60405180910390f35b60011515600260003373ffffffffffffffffffffffffffffffffffffffff1673ffffffffffffffffffffffffffffffffffffffff16815260200190815260200160002060009054906101000a900460ff16151514610254576040517f08c379a000000000000000000000000000000000000000000000000000000000815260040161024b90610e4a565b60405180910390fd5b6001836040516102649190610edb565b908152602001604051809103902060010160009054906101000a900460ff16156102c3576040517f08c379a00000000000000000000000000000000000000000000000000000000081526004016102ba90610f3e565b60405180910390fd5b6040518060c00160405280848152602001600115158152602001831515815260200160008152602001600081526020018273ffffffffffffffffffffffffffffffffffffffff1681525060018460405161031d9190610edb565b90815260200160405180910390206000820151816000019081610340919061116a565b5060208201518160010160006101000a81548160ff02191690831515021790555060408201518160010160016101000a81548160ff021916908315150217905550606082015181600201556080820151816003015560a08201518160040160006101000a81548173ffffffffffffffffffffffffffffffffffffffff021916908373ffffffffffffffffffffffffffffffffffffffff160217905550905050505050565b60011515600260003373ffffffffffffffffffffffffffffffffffffffff1673ffffffffffffffffffffffffffffffffffffffff16815260200190815260200160002060009054906101000a900460ff16151514610477576040517f08c379a000000000000000000000000000000000000000000000000000000000815260040161046e90610e4a565b60405180910390fd5b6001836040516104879190610edb565b908152602001604051809103902060010160009054906101000a900460ff166104e5576040517f08c379a00000000000000000000000000000000000000000000000000000000081526004016104dc90611288565b60405180910390fd5b6105106001846040516104f89190610edb565b908152602001604051809103902060020154836109a7565b6001846040516105209190610edb565b9081526020016040518091039020600201819055506105606001846040516105489190610edb565b908152602001604051809103902060030154826109a7565b6001846040516105709190610edb565b908152602001604051809103902060030181905550505050565b6000600260008373ffffffffffffffffffffffffffffffffffffffff1673ffffffffffffffffffffffffffffffffffffffff16815260200190815260200160002060009054906101000a900460ff169050919050565b60008054906101000a900473ffffffffffffffffffffffffffffffffffffffff1673ffffffffffffffffffffffffffffffffffffffff163373ffffffffffffffffffffffffffffffffffffffff161461066e576040517f08c379a0000000000000000000000000000000000000000000000000000000008152600401610665906112f4565b60405180910390fd5b6001600260008373ffffffffffffffffffffffffffffffffffffffff1673ffffffffffffffffffffffffffffffffffffffff16815260200190815260200160002060006101000a81548160ff02191690831515021790555050565b60008054906101000a900473ffffffffffffffffffffffffffffffffffffffff1673ffffffffffffffffffffffffffffffffffffffff163373ffffffffffffffffffffffffffffffffffffffff1614610757576040517f08c379a000000000000000000000000000000000000000000000000000000000815260040161074e906112f4565b60405180910390fd5b6000600260008373ffffffffffffffffffffffffffffffffffffffff1673ffffffffffffffffffffffffffffffffffffffff16815260200190815260200160002060006101000a81548160ff02191690831515021790555050565b60008060008060006001866040516107ca9190610edb565b908152602001604051809103902060040160009054906101000a900473ffffffffffffffffffffffffffffffffffffffff1660018760405161080c9190610edb565b908152602001604051809103902060010160009054906101000a900460ff1660018860405161083b9190610edb565b908152602001604051809103902060010160019054906101000a900460ff1660018960405161086a9190610edb565b90815260200160405180910390206002015460018a60405161088c9190610edb565b9081526020016040518091039020600301549450945094509450945091939590929450565b60006001826040516108c39190610edb565b908152602001604051809103902060010160009054906101000a900460ff169050919050565b600060011515600260003373ffffffffffffffffffffffffffffffffffffffff1673ffffffffffffffffffffffffffffffffffffffff16815260200190815260200160002060009054906101000a900460ff1615151461097e576040517f08c379a000000000000000000000000000000000000000000000000000000000815260040161097590610e4a565b60405180910390fd5b60018260405161098e9190610edb565b9081526020016040518091039020600301549050919050565b600081836109b59190611343565b905092915050565b6000604051905090565b600080fd5b600080fd5b600080fd5b600080fd5b6000601f19601f8301169050919050565b7f4e487b7100000000000000000000000000000000000000000000000000000000600052604160045260246000fd5b610a24826109db565b810181811067ffffffffffffffff82111715610a4357610a426109ec565b5b80604052505050565b6000610a566109bd565b9050610a628282610a1b565b919050565b600067ffffffffffffffff821115610a8257610a816109ec565b5b610a8b826109db565b9050602081019050919050565b82818337600083830152505050565b6000610aba610ab584610a67565b610a4c565b905082815260208101848484011115610ad657610ad56109d6565b5b610ae1848285610a98565b509392505050565b600082601f830112610afe57610afd6109d1565b5b8135610b0e848260208601610aa7565b91505092915050565b60008115159050919050565b610b2c81610b17565b8114610b3757600080fd5b50565b600081359050610b4981610b23565b92915050565b600073ffffffffffffffffffffffffffffffffffffffff82169050919050565b6000610b7a82610b4f565b9050919050565b610b8a81610b6f565b8114610b9557600080fd5b50565b600081359050610ba781610b81565b92915050565b600080600060608486031215610bc657610bc56109c7565b5b600084013567ffffffffffffffff811115610be457610be36109cc565b5b610bf086828701610ae9565b9350506020610c0186828701610b3a565b9250506040610c1286828701610b98565b9150509250925092565b6000819050919050565b610c2f81610c1c565b8114610c3a57600080fd5b50565b600081359050610c4c81610c26565b92915050565b600080600060608486031215610c6b57610c6a6109c7565b5b600084013567ffffffffffffffff811115610c8957610c886109cc565b5b610c9586828701610ae9565b9350506020610ca686828701610c3d565b9250506040610cb786828701610c3d565b9150509250925092565b600060208284031215610cd757610cd66109c7565b5b6000610ce584828501610b98565b91505092915050565b610cf781610b17565b82525050565b6000602082019050610d126000830184610cee565b92915050565b600060208284031215610d2e57610d2d6109c7565b5b600082013567ffffffffffffffff811115610d4c57610d4b6109cc565b5b610d5884828501610ae9565b91505092915050565b610d6a81610b6f565b82525050565b610d7981610c1c565b82525050565b600060a082019050610d946000830188610d61565b610da16020830187610cee565b610dae6040830186610cee565b610dbb6060830185610d70565b610dc86080830184610d70565b9695505050505050565b6000602082019050610de76000830184610d70565b92915050565b600082825260208201905092915050565b7f4e6f7420616e20617574686f72697a656420636f6e74726163742063616c6c00600082015250565b6000610e34601f83610ded565b9150610e3f82610dfe565b602082019050919050565b60006020820190508181036000830152610e6381610e27565b9050919050565b600081519050919050565b600081905092915050565b60005b83811015610e9e578082015181840152602081019050610e83565b60008484015250505050565b6000610eb582610e6a565b610ebf8185610e75565b9350610ecf818560208601610e80565b80840191505092915050565b6000610ee78284610eaa565b915081905092915050565b7f456d706c6f79656520697320616c726561647920726567697374657265642e00600082015250565b6000610f28601f83610ded565b9150610f3382610ef2565b602082019050919050565b60006020820190508181036000830152610f5781610f1b565b9050919050565b7f4e487b7100000000000000000000000000000000000000000000000000000000600052602260045260246000fd5b60006002820490506001821680610fa557607f821691505b602082108103610fb857610fb7610f5e565b5b50919050565b60008190508160005260206000209050919050565b60006020601f8301049050919050565b600082821b905092915050565b6000600883026110207fffffffffffffffffffffffffffffffffffffffffffffffffffffffffffffffff82610fe3565b61102a8683610fe3565b95508019841693508086168417925050509392505050565b6000819050919050565b600061106761106261105d84610c1c565b611042565b610c1c565b9050919050565b6000819050919050565b6110818361104c565b61109561108d8261106e565b848454610ff0565b825550505050565b600090565b6110aa61109d565b6110b5818484611078565b505050565b5b818110156110d9576110ce6000826110a2565b6001810190506110bb565b5050565b601f82111561111e576110ef81610fbe565b6110f884610fd3565b81016020851015611107578190505b61111b61111385610fd3565b8301826110ba565b50505b505050565b600082821c905092915050565b600061114160001984600802611123565b1980831691505092915050565b600061115a8383611130565b9150826002028217905092915050565b61117382610e6a565b67ffffffffffffffff81111561118c5761118b6109ec565b5b6111968254610f8d565b6111a18282856110dd565b600060209050601f8311600181146111d457600084156111c2578287015190505b6111cc858261114e565b865550611234565b601f1984166111e286610fbe565b60005b8281101561120a578489015182556001820191506020850194506020810190506111e5565b868310156112275784890151611223601f891682611130565b8355505b6001600288020188555050505b505050505050565b7f456d706c6f796565206973206e6f7420726567697374657265642e0000000000600082015250565b6000611272601b83610ded565b915061127d8261123c565b602082019050919050565b600060208201905081810360008301526112a181611265565b9050919050565b7f43616c6c6572206973206e6f7420636f6e7472616374206f776e657200000000600082015250565b60006112de601c83610ded565b91506112e9826112a8565b602082019050919050565b6000602082019050818103600083015261130d816112d1565b9050919050565b7f4e487b7100000000000000000000000000000000000000000000000000000000600052601160045260246000fd5b600061134e82610c1c565b915061135983610c1c565b925082820190508082111561137157611370611314565b5b9291505056fea2646970667358221220c406d451bd3bf46ba2c767b6a49589e2d985a80f7c26aee75fffa7fa182a516864736f6c63430008100033",
  "immutableReferences": {},
  "source": "// SPDX-License-Identifier: MIT\npragma solidity ^0.8.16;\n\nimport \"@openzeppelin/contracts/utils/math/SafeMath.sol\";\n\ncontract Employees {\n\n    using SafeMath for uint256; \n\n    struct Profile {\n        string id;\n        bool isRegistered;\n        bool isAdmin;\n        uint256 sales;\n        uint256 bonus;\n        address wallet;\n    }\n\n    address private contractOwner;                  // Account used to deploy contract\n    mapping(string => Profile) employees;\n    mapping(address => bool) private authorized;\n\n    constructor () {\n        contractOwner = msg.sender;\n    }\n\n    modifier isCallerAuthrized() {\n        require(authorized[msg.sender] == true, \"Not an authorized contract call\");\n        _;\n    }\n\n    modifier requireContractOwner() {\n        require(msg.sender == contractOwner, \"Caller is not contract owner\");\n        _;\n    }\n\n    function authorizeContract(address contractAddress) external requireContractOwner {\n        authorized[contractAddress] = true;\n    }\n\n    function deauthorizeContract(address contractAddress) external requireContractOwner {\n        authorized[contractAddress] = false;\n    }\n\n    function isAuthorizedContract(address contractAddress) external view returns(bool) {\n        return authorized[contractAddress];\n    }\n\n    function isEmployeeRegistered (string memory id) external view returns(bool) {\n        return employees[id].isRegistered;\n    }\n\n   function registerEmployee (string memory id, bool isAdmin, address wallet ) external isCallerAuthrized {\n        require(!employees[id].isRegistered, \"Employee is already registered.\");\n        employees[id] = Profile({   id: id,\n                                    isRegistered: true,\n                                    isAdmin: isAdmin,\n                                    sales: 0,\n                                    bonus: 0,\n                                    wallet: wallet\n                                });\n    }\n\n    function getEmployee (string memory id) external view returns(address, bool, bool, uint256, uint256) {\n        return (employees[id].wallet, employees[id].isRegistered, employees[id].isAdmin, employees[id].sales, employees[id].bonus);\n    }\n\n    function getEmployeeBonus (string memory id ) external view isCallerAuthrized returns(uint256) {\n        return employees[id].bonus;\n    }\n\n    function updateEmployee (string memory id, uint256 sales, uint256 bonus ) external isCallerAuthrized {\n        require(employees[id].isRegistered, \"Employee is not registered.\");\n        employees[id].sales = SafeMath.add(employees[id].sales, sales);\n        employees[id].bonus = SafeMath.add(employees[id].bonus, bonus);\n\n    }\n}",
  "sourcePath": "/home/isma/Desktop/code/blockchain/SolidityBestPractices/contracts/SplitAppData/Employees.sol",
  "compiler": {
    "name": "solc",
    "version": "0.8.16+commit.07a7930e.Emscripten.clang"
  },
  "schemaVersion": "3.4.9",
  "updatedAt": "2022-09-10T05:26:12.430Z",
  "devdoc": {
    "kind": "dev",
    "methods": {},
    "version": 1
  },
  "userdoc": {
    "kind": "user",
    "methods": {},
    "version": 1
  }
}