{
  "contractName": "MultiPartAndPause",
  "abi": [
    {
      "inputs": [],
      "stateMutability": "nonpayable",
      "type": "constructor"
    },
    {
      "inputs": [],
      "name": "operational",
      "outputs": [
        {
          "internalType": "bool",
          "name": "",
          "type": "bool"
        }
      ],
      "stateMutability": "view",
      "type": "function"
    },
    {
      "inputs": [
        {
          "internalType": "address",
          "name": "account",
          "type": "address"
        }
      ],
      "name": "isUserRegistered",
      "outputs": [
        {
          "internalType": "bool",
          "name": "",
          "type": "bool"
        }
      ],
      "stateMutability": "view",
      "type": "function"
    },
    {
      "inputs": [
        {
          "internalType": "address",
          "name": "account",
          "type": "address"
        },
        {
          "internalType": "bool",
          "name": "isAdmin",
          "type": "bool"
        }
      ],
      "name": "registerUser",
      "outputs": [],
      "stateMutability": "nonpayable",
      "type": "function"
    },
    {
      "inputs": [
        {
          "internalType": "bool",
          "name": "status",
          "type": "bool"
        }
      ],
      "name": "setOperational",
      "outputs": [],
      "stateMutability": "nonpayable",
      "type": "function"
    }
  ],
  "bytecode": "0x6080604052600067ffffffffffffffff81111561001f5761001e610178565b5b60405190808252806020026020018201604052801561004d5781602001602082028036833780820191505090505b50600390805190602001906100639291906100d1565b5034801561007057600080fd5b50336000806101000a81548173ffffffffffffffffffffffffffffffffffffffff021916908373ffffffffffffffffffffffffffffffffffffffff1602179055506001600260006101000a81548160ff0219169083151502179055506101a7565b82805482825590600052602060002090810192821561014a579160200282015b828111156101495782518260006101000a81548173ffffffffffffffffffffffffffffffffffffffff021916908373ffffffffffffffffffffffffffffffffffffffff160217905550916020019190600101906100f1565b5b509050610157919061015b565b5090565b5b8082111561017457600081600090555060010161015c565b5090565b7f4e487b7100000000000000000000000000000000000000000000000000000000600052604160045260246000fd5b610cf1806101b66000396000f3fe608060405234801561001057600080fd5b506004361061004c5760003560e01c80630a40108614610051578063163f75221461006f578063500b94aa1461009f578063951faf00146100bb575b600080fd5b6100596100d7565b6040516100669190610747565b60405180910390f35b610089600480360381019061008491906107c5565b6100ea565b6040516100969190610747565b60405180910390f35b6100b960048036038101906100b4919061081e565b6101b1565b005b6100d560048036038101906100d0919061084b565b610471565b005b600260009054906101000a900460ff1681565b60008073ffffffffffffffffffffffffffffffffffffffff168273ffffffffffffffffffffffffffffffffffffffff160361015a576040517f08c379a00000000000000000000000000000000000000000000000000000000081526004016101519061090e565b60405180910390fd5b600160008373ffffffffffffffffffffffffffffffffffffffff1673ffffffffffffffffffffffffffffffffffffffff16815260200190815260200160002060000160009054906101000a900460ff169050919050565b60011515600160003373ffffffffffffffffffffffffffffffffffffffff1673ffffffffffffffffffffffffffffffffffffffff16815260200190815260200160002060000160019054906101000a900460ff16151514610247576040517f08c379a000000000000000000000000000000000000000000000000000000000815260040161023e9061097a565b60405180910390fd5b801515600260009054906101000a900460ff1615150361029c576040517f08c379a000000000000000000000000000000000000000000000000000000000815260040161029390610a0c565b60405180910390fd5b6000805b60038054905081101561033a573373ffffffffffffffffffffffffffffffffffffffff16600382815481106102d8576102d7610a2c565b5b9060005260206000200160009054906101000a900473ffffffffffffffffffffffffffffffffffffffff1673ffffffffffffffffffffffffffffffffffffffff1603610327576001915061033a565b808061033290610a94565b9150506102a0565b506000151581151514610382576040517f08c379a000000000000000000000000000000000000000000000000000000000815260040161037990610b28565b60405180910390fd5b6003339080600181540180825580915050600190039060005260206000200160009091909190916101000a81548173ffffffffffffffffffffffffffffffffffffffff021916908373ffffffffffffffffffffffffffffffffffffffff16021790555060026003805490500361046d5781600260006101000a81548160ff021916908315150217905550600067ffffffffffffffff81111561042757610426610b48565b5b6040519080825280602002602001820160405280156104555781602001602082028036833780820191505090505b506003908051906020019061046b929190610685565b505b5050565b60008054906101000a900473ffffffffffffffffffffffffffffffffffffffff1673ffffffffffffffffffffffffffffffffffffffff163373ffffffffffffffffffffffffffffffffffffffff16146104ff576040517f08c379a00000000000000000000000000000000000000000000000000000000081526004016104f690610bc3565b60405180910390fd5b60011515600260009054906101000a900460ff16151514610555576040517f08c379a000000000000000000000000000000000000000000000000000000000815260040161054c90610c2f565b60405180910390fd5b600160008373ffffffffffffffffffffffffffffffffffffffff1673ffffffffffffffffffffffffffffffffffffffff16815260200190815260200160002060000160009054906101000a900460ff16156105e5576040517f08c379a00000000000000000000000000000000000000000000000000000000081526004016105dc90610c9b565b60405180910390fd5b6040518060400160405280600115158152602001821515815250600160008473ffffffffffffffffffffffffffffffffffffffff1673ffffffffffffffffffffffffffffffffffffffff16815260200190815260200160002060008201518160000160006101000a81548160ff02191690831515021790555060208201518160000160016101000a81548160ff0219169083151502179055509050505050565b8280548282559060005260206000209081019282156106fe579160200282015b828111156106fd5782518260006101000a81548173ffffffffffffffffffffffffffffffffffffffff021916908373ffffffffffffffffffffffffffffffffffffffff160217905550916020019190600101906106a5565b5b50905061070b919061070f565b5090565b5b80821115610728576000816000905550600101610710565b5090565b60008115159050919050565b6107418161072c565b82525050565b600060208201905061075c6000830184610738565b92915050565b600080fd5b600073ffffffffffffffffffffffffffffffffffffffff82169050919050565b600061079282610767565b9050919050565b6107a281610787565b81146107ad57600080fd5b50565b6000813590506107bf81610799565b92915050565b6000602082840312156107db576107da610762565b5b60006107e9848285016107b0565b91505092915050565b6107fb8161072c565b811461080657600080fd5b50565b600081359050610818816107f2565b92915050565b60006020828403121561083457610833610762565b5b600061084284828501610809565b91505092915050565b6000806040838503121561086257610861610762565b5b6000610870858286016107b0565b925050602061088185828601610809565b9150509250929050565b600082825260208201905092915050565b7f276163636f756e7427206d75737420626520612076616c69642061646472657360008201527f732e000000000000000000000000000000000000000000000000000000000000602082015250565b60006108f860228361088b565b91506109038261089c565b604082019050919050565b60006020820190508181036000830152610927816108eb565b9050919050565b7f53656e646572206973206e6f7420616e2061646d696e00000000000000000000600082015250565b600061096460168361088b565b915061096f8261092e565b602082019050919050565b6000602082019050818103600083015261099381610957565b9050919050565b7f436f6e74726163742073746174757320697320616c726561647920746865207660008201527f616c756520726571756573746564000000000000000000000000000000000000602082015250565b60006109f6602e8361088b565b9150610a018261099a565b604082019050919050565b60006020820190508181036000830152610a25816109e9565b9050919050565b7f4e487b7100000000000000000000000000000000000000000000000000000000600052603260045260246000fd5b7f4e487b7100000000000000000000000000000000000000000000000000000000600052601160045260246000fd5b6000819050919050565b6000610a9f82610a8a565b91507fffffffffffffffffffffffffffffffffffffffffffffffffffffffffffffffff8203610ad157610ad0610a5b565b5b600182019050919050565b7f416e2061646d696e2063616e2063616c6c206a757374206f6e63650000000000600082015250565b6000610b12601b8361088b565b9150610b1d82610adc565b602082019050919050565b60006020820190508181036000830152610b4181610b05565b9050919050565b7f4e487b7100000000000000000000000000000000000000000000000000000000600052604160045260246000fd5b7f43616c6c6572206973206e6f7420636f6e7472616374206f776e657200000000600082015250565b6000610bad601c8361088b565b9150610bb882610b77565b602082019050919050565b60006020820190508181036000830152610bdc81610ba0565b9050919050565b7f536d61727420636f6e7472616374206973207061757365640000000000000000600082015250565b6000610c1960188361088b565b9150610c2482610be3565b602082019050919050565b60006020820190508181036000830152610c4881610c0c565b9050919050565b7f5573657220697320616c726561647920726567697374657265642e0000000000600082015250565b6000610c85601b8361088b565b9150610c9082610c4f565b602082019050919050565b60006020820190508181036000830152610cb481610c78565b905091905056fea264697066735822122044934aa0d5c4e27693add79826ba81853e418a286b59d2855f9f4d0362b5b3ab64736f6c63430008100033",
  "immutableReferences": {},
  "source": "// SPDX-License-Identifier: MIT\npragma solidity ^0.8.16;\n\ncontract MultiPartAndPause {\n\n    /********************************************************************************************/\n    /*                                       DATA VARIABLES                                     */\n    /********************************************************************************************/\n    struct UserProfile {\n        bool isRegistered;\n        bool isAdmin;\n    }\n\n    address private contractOwner;                  // Account used to deploy contract\n    mapping(address => UserProfile) userProfiles;   // Mapping for storing user profiles\n\n    bool public operational;\n\n    uint constant M = 2;\n    address[] multiCalls = new address[](0);\n\n    /********************************************************************************************/\n    /*                                       EVENT DEFINITIONS                                  */\n    /********************************************************************************************/\n    // No events\n\n    /**\n    * @dev Constructor\n    * The deploying account becomes contractOwner\n    */\n    constructor() {\n        contractOwner = msg.sender;\n        operational = true;\n    }\n\n    /********************************************************************************************/\n    /*                                       FUNCTION MODIFIERS                                 */\n    /********************************************************************************************/\n\n    // Modifiers help avoid duplication of code. They are typically used to validate something\n    // before a function is allowed to be executed.\n\n    /**\n    * @dev Modifier that requires the \"ContractOwner\" account to be the function caller\n    */\n    modifier requireContractOwner() {\n        require(msg.sender == contractOwner, \"Caller is not contract owner\");\n        _;\n    }\n\n    /// @dev This modifier checks whether the contract is paused or not\n    modifier isOperational() {\n        require(operational == true, \"Smart contract is paused\");\n        _;\n    }\n\n    /// @dev Checks whether the message sender is an admin or not (for multi-party consensus)\n    modifier requiredAdmin() {\n        require(userProfiles[msg.sender].isAdmin == true, \"Sender is not an admin\");\n        _;\n    }\n\n    /********************************************************************************************/\n    /*                                       UTILITY FUNCTIONS                                  */\n    /********************************************************************************************/\n\n   /**\n    * @dev Check if a user is registered\n    * @return A bool that indicates if the user is registered\n    */   \n    function isUserRegistered (address account) external view returns(bool) {\n        require(account != address(0), \"'account' must be a valid address.\");\n        return userProfiles[account].isRegistered;\n    }\n\n    /********************************************************************************************/\n    /*                                     SMART CONTRACT FUNCTIONS                             */\n    /********************************************************************************************/\n    function registerUser (address account, bool isAdmin) external requireContractOwner isOperational {\n        require(!userProfiles[account].isRegistered, \"User is already registered.\");\n        userProfiles[account] = UserProfile({ isRegistered: true, isAdmin: isAdmin });\n    }\n\n    function setOperational (bool status) public requiredAdmin {\n        require(operational != status, \"Contract status is already the value requested\");\n        // Check duplicated calls\n        bool isDuplicate = false;\n        for (uint256 i = 0; i < multiCalls.length; i++) {\n            if (multiCalls[i] == msg.sender) {\n                isDuplicate = true;\n                break;\n            }\n        }\n        require(isDuplicate == false, \"An admin can call just once\");\n        \n        // Add to multiCalls array and check approval step\n        multiCalls.push(msg.sender);\n        if (multiCalls.length == M) {\n            operational = status;\n            multiCalls = new address[](0);\n        }\n    }\n}",
  "sourcePath": "/home/isma/Desktop/code/blockchain/SolidityBestPractices/contracts/MultiPartAndPause.sol",
  "compiler": {
    "name": "solc",
    "version": "0.8.16+commit.07a7930e.Emscripten.clang"
  },
  "schemaVersion": "3.4.9",
  "updatedAt": "2022-09-03T07:53:09.577Z",
  "devdoc": {
    "kind": "dev",
    "methods": {
      "constructor": {
        "details": "Constructor The deploying account becomes contractOwner"
      },
      "isUserRegistered(address)": {
        "details": "Check if a user is registered",
        "returns": {
          "_0": "A bool that indicates if the user is registered"
        }
      }
    },
    "version": 1
  },
  "userdoc": {
    "kind": "user",
    "methods": {},
    "version": 1
  }
}