{
  "contractName": "MultipartAndPause",
  "abi": [
    {
      "inputs": [],
      "stateMutability": "nonpayable",
      "type": "constructor"
    },
    {
      "inputs": [],
      "name": "operational",
      "outputs": [
        {
          "internalType": "bool",
          "name": "",
          "type": "bool"
        }
      ],
      "stateMutability": "view",
      "type": "function",
      "constant": true
    },
    {
      "inputs": [
        {
          "internalType": "address",
          "name": "account",
          "type": "address"
        }
      ],
      "name": "isUserRegistered",
      "outputs": [
        {
          "components": [
            {
              "internalType": "bool",
              "name": "isRegistered",
              "type": "bool"
            },
            {
              "internalType": "bool",
              "name": "isAdmin",
              "type": "bool"
            }
          ],
          "internalType": "struct MultipartAndPause.UserProfile",
          "name": "",
          "type": "tuple"
        }
      ],
      "stateMutability": "view",
      "type": "function",
      "constant": true
    },
    {
      "inputs": [
        {
          "internalType": "address",
          "name": "account",
          "type": "address"
        },
        {
          "internalType": "bool",
          "name": "isAdmin",
          "type": "bool"
        }
      ],
      "name": "registerUser",
      "outputs": [],
      "stateMutability": "nonpayable",
      "type": "function"
    },
    {
      "inputs": [
        {
          "internalType": "bool",
          "name": "status",
          "type": "bool"
        }
      ],
      "name": "setOperational",
      "outputs": [],
      "stateMutability": "nonpayable",
      "type": "function"
    }
  ],
  "bytecode": "0x6080604052600067ffffffffffffffff81111561001f5761001e610178565b5b60405190808252806020026020018201604052801561004d5781602001602082028036833780820191505090505b50600390805190602001906100639291906100d1565b5034801561007057600080fd5b50336000806101000a81548173ffffffffffffffffffffffffffffffffffffffff021916908373ffffffffffffffffffffffffffffffffffffffff1602179055506001600260006101000a81548160ff0219169083151502179055506101a7565b82805482825590600052602060002090810192821561014a579160200282015b828111156101495782518260006101000a81548173ffffffffffffffffffffffffffffffffffffffff021916908373ffffffffffffffffffffffffffffffffffffffff160217905550916020019190600101906100f1565b5b509050610157919061015b565b5090565b5b8082111561017457600081600090555060010161015c565b5090565b7f4e487b7100000000000000000000000000000000000000000000000000000000600052604160045260246000fd5b610ca3806101b66000396000f3fe608060405234801561001057600080fd5b506004361061004c5760003560e01c80630a40108614610051578063163f75221461006f578063500b94aa1461009f578063951faf00146100bb575b600080fd5b6100596100d7565b604051610066919061070c565b60405180910390f35b6100896004803603810190610084919061078a565b6100ea565b60405161009691906107f5565b60405180910390f35b6100b960048036038101906100b4919061083c565b6101e8565b005b6100d560048036038101906100d09190610869565b6104a8565b005b600260009054906101000a900460ff1681565b6100f261062c565b600073ffffffffffffffffffffffffffffffffffffffff168273ffffffffffffffffffffffffffffffffffffffff1603610161576040517f08c379a00000000000000000000000000000000000000000000000000000000081526004016101589061092c565b60405180910390fd5b600160008373ffffffffffffffffffffffffffffffffffffffff1673ffffffffffffffffffffffffffffffffffffffff1681526020019081526020016000206040518060400160405290816000820160009054906101000a900460ff161515151581526020016000820160019054906101000a900460ff1615151515815250509050919050565b60011515600160003373ffffffffffffffffffffffffffffffffffffffff1673ffffffffffffffffffffffffffffffffffffffff16815260200190815260200160002060000160019054906101000a900460ff1615151461027e576040517f08c379a000000000000000000000000000000000000000000000000000000000815260040161027590610998565b60405180910390fd5b801515600260009054906101000a900460ff161515036102d3576040517f08c379a00000000000000000000000000000000000000000000000000000000081526004016102ca90610a2a565b60405180910390fd5b6000805b600380549050811015610371573373ffffffffffffffffffffffffffffffffffffffff166003828154811061030f5761030e610a4a565b5b9060005260206000200160009054906101000a900473ffffffffffffffffffffffffffffffffffffffff1673ffffffffffffffffffffffffffffffffffffffff160361035e5760019150610371565b808061036990610ab2565b9150506102d7565b5060001515811515146103b9576040517f08c379a00000000000000000000000000000000000000000000000000000000081526004016103b090610b46565b60405180910390fd5b6003339080600181540180825580915050600190039060005260206000200160009091909190916101000a81548173ffffffffffffffffffffffffffffffffffffffff021916908373ffffffffffffffffffffffffffffffffffffffff1602179055506002600380549050036104a45781600260006101000a81548160ff021916908315150217905550600067ffffffffffffffff81111561045e5761045d610b66565b5b60405190808252806020026020018201604052801561048c5781602001602082028036833780820191505090505b50600390805190602001906104a292919061064a565b505b5050565b60008054906101000a900473ffffffffffffffffffffffffffffffffffffffff1673ffffffffffffffffffffffffffffffffffffffff163373ffffffffffffffffffffffffffffffffffffffff1614610536576040517f08c379a000000000000000000000000000000000000000000000000000000000815260040161052d90610be1565b60405180910390fd5b60011515600260009054906101000a900460ff1615151461058c576040517f08c379a000000000000000000000000000000000000000000000000000000000815260040161058390610c4d565b60405180910390fd5b6040518060400160405280600115158152602001821515815250600160008473ffffffffffffffffffffffffffffffffffffffff1673ffffffffffffffffffffffffffffffffffffffff16815260200190815260200160002060008201518160000160006101000a81548160ff02191690831515021790555060208201518160000160016101000a81548160ff0219169083151502179055509050505050565b60405180604001604052806000151581526020016000151581525090565b8280548282559060005260206000209081019282156106c3579160200282015b828111156106c25782518260006101000a81548173ffffffffffffffffffffffffffffffffffffffff021916908373ffffffffffffffffffffffffffffffffffffffff1602179055509160200191906001019061066a565b5b5090506106d091906106d4565b5090565b5b808211156106ed5760008160009055506001016106d5565b5090565b60008115159050919050565b610706816106f1565b82525050565b600060208201905061072160008301846106fd565b92915050565b600080fd5b600073ffffffffffffffffffffffffffffffffffffffff82169050919050565b60006107578261072c565b9050919050565b6107678161074c565b811461077257600080fd5b50565b6000813590506107848161075e565b92915050565b6000602082840312156107a05761079f610727565b5b60006107ae84828501610775565b91505092915050565b6107c0816106f1565b82525050565b6040820160008201516107dc60008501826107b7565b5060208201516107ef60208501826107b7565b50505050565b600060408201905061080a60008301846107c6565b92915050565b610819816106f1565b811461082457600080fd5b50565b60008135905061083681610810565b92915050565b60006020828403121561085257610851610727565b5b600061086084828501610827565b91505092915050565b600080604083850312156108805761087f610727565b5b600061088e85828601610775565b925050602061089f85828601610827565b9150509250929050565b600082825260208201905092915050565b7f276163636f756e7427206d75737420626520612076616c69642061646472657360008201527f732e000000000000000000000000000000000000000000000000000000000000602082015250565b60006109166022836108a9565b9150610921826108ba565b604082019050919050565b6000602082019050818103600083015261094581610909565b9050919050565b7f53656e646572206973206e6f7420616e2061646d696e00000000000000000000600082015250565b60006109826016836108a9565b915061098d8261094c565b602082019050919050565b600060208201905081810360008301526109b181610975565b9050919050565b7f436f6e74726163742073746174757320697320616c726561647920746865207660008201527f616c756520726571756573746564000000000000000000000000000000000000602082015250565b6000610a14602e836108a9565b9150610a1f826109b8565b604082019050919050565b60006020820190508181036000830152610a4381610a07565b9050919050565b7f4e487b7100000000000000000000000000000000000000000000000000000000600052603260045260246000fd5b7f4e487b7100000000000000000000000000000000000000000000000000000000600052601160045260246000fd5b6000819050919050565b6000610abd82610aa8565b91507fffffffffffffffffffffffffffffffffffffffffffffffffffffffffffffffff8203610aef57610aee610a79565b5b600182019050919050565b7f416e2061646d696e2063616e2063616c6c206a757374206f6e63650000000000600082015250565b6000610b30601b836108a9565b9150610b3b82610afa565b602082019050919050565b60006020820190508181036000830152610b5f81610b23565b9050919050565b7f4e487b7100000000000000000000000000000000000000000000000000000000600052604160045260246000fd5b7f43616c6c6572206973206e6f7420636f6e7472616374206f776e657200000000600082015250565b6000610bcb601c836108a9565b9150610bd682610b95565b602082019050919050565b60006020820190508181036000830152610bfa81610bbe565b9050919050565b7f536d61727420636f6e7472616374206973207061757365640000000000000000600082015250565b6000610c376018836108a9565b9150610c4282610c01565b602082019050919050565b60006020820190508181036000830152610c6681610c2a565b905091905056fea264697066735822122026305fa672710ffd69f167386f4c6c575306897219efb6506e16b941b7f78e3d64736f6c63430008100033",
  "immutableReferences": {},
  "source": "// SPDX-License-Identifier: MIT\npragma solidity ^0.8.16;\n\ncontract MultipartAndPause {\n\n    /********************************************************************************************/\n    /*                                       DATA VARIABLES                                     */\n    /********************************************************************************************/\n    struct UserProfile {\n        bool isRegistered;\n        bool isAdmin;\n    }\n\n    address private contractOwner;                  // Account used to deploy contract\n    mapping(address => UserProfile) userProfiles;   // Mapping for storing user profiles\n\n    bool public operational;\n\n    uint constant M = 2;\n    address[] multiCalls = new address[](0);\n\n    /********************************************************************************************/\n    /*                                       EVENT DEFINITIONS                                  */\n    /********************************************************************************************/\n    // No events\n\n    /**\n    * @dev Constructor\n    * The deploying account becomes contractOwner\n    */\n    constructor() {\n        contractOwner = msg.sender;\n        operational = true;\n    }\n\n    /********************************************************************************************/\n    /*                                       FUNCTION MODIFIERS                                 */\n    /********************************************************************************************/\n\n    // Modifiers help avoid duplication of code. They are typically used to validate something\n    // before a function is allowed to be executed.\n\n    /**\n    * @dev Modifier that requires the \"ContractOwner\" account to be the function caller\n    */\n    modifier requireContractOwner() {\n        require(msg.sender == contractOwner, \"Caller is not contract owner\");\n        _;\n    }\n\n    /// @dev This modifier checks whether the contract is paused or not\n    modifier isOperational() {\n        require(operational == true, \"Smart contract is paused\");\n        _;\n    }\n\n    /// @dev Checks whether the message sender is an admin or not (for multi-party consensus)\n    modifier requiredAdmin() {\n        require(userProfiles[msg.sender].isAdmin == true, \"Sender is not an admin\");\n        _;\n    }\n\n    /********************************************************************************************/\n    /*                                       UTILITY FUNCTIONS                                  */\n    /********************************************************************************************/\n\n   /**\n    * @dev Check if a user is registered\n    * @return A bool that indicates if the user is registered\n    */   \n    function isUserRegistered (address account) external view returns(UserProfile memory) {\n        require(account != address(0), \"'account' must be a valid address.\");\n        return (userProfiles[account]);\n    }\n\n    /********************************************************************************************/\n    /*                                     SMART CONTRACT FUNCTIONS                             */\n    /********************************************************************************************/\n    function registerUser (address account, bool isAdmin) external requireContractOwner isOperational {\n        //require(!userProfiles[account].isRegistered, \"User is already registered.\");\n        userProfiles[account] = UserProfile({ isRegistered: true, isAdmin: isAdmin });\n    }\n\n    function setOperational (bool status) public requiredAdmin {\n        require(operational != status, \"Contract status is already the value requested\");\n        // Check duplicated calls\n        bool isDuplicate = false;\n        for (uint256 i = 0; i < multiCalls.length; i++) {\n            if (multiCalls[i] == msg.sender) {\n                isDuplicate = true;\n                break;\n            }\n        }\n        require(isDuplicate == false, \"An admin can call just once\");\n        \n        // Add to multiCalls array and check approval step\n        multiCalls.push(msg.sender);\n        if (multiCalls.length == M) {\n            operational = status;\n            multiCalls = new address[](0);\n        }\n    }\n}",
  "sourcePath": "/home/isma/Desktop/code/blockchain/SolidityBestPractices/contracts/MultipartAndPause.sol",
  "compiler": {
    "name": "solc",
    "version": "0.8.16+commit.07a7930e.Emscripten.clang"
  },
  "schemaVersion": "3.4.9",
  "updatedAt": "2022-09-09T22:56:24.638Z",
  "networkType": "ethereum",
  "devdoc": {
    "kind": "dev",
    "methods": {
      "constructor": {
        "details": "Constructor The deploying account becomes contractOwner"
      },
      "isUserRegistered(address)": {
        "details": "Check if a user is registered",
        "returns": {
          "_0": "A bool that indicates if the user is registered"
        }
      }
    },
    "version": 1
  },
  "userdoc": {
    "kind": "user",
    "methods": {},
    "version": 1
  }
}