{
  "contractName": "Oracles",
  "abi": [
    {
      "inputs": [],
      "stateMutability": "nonpayable",
      "type": "constructor"
    },
    {
      "anonymous": false,
      "inputs": [
        {
          "indexed": false,
          "internalType": "string",
          "name": "flight",
          "type": "string"
        },
        {
          "indexed": false,
          "internalType": "uint256",
          "name": "timestamp",
          "type": "uint256"
        },
        {
          "indexed": false,
          "internalType": "uint8",
          "name": "status",
          "type": "uint8"
        },
        {
          "indexed": false,
          "internalType": "bool",
          "name": "verified",
          "type": "bool"
        }
      ],
      "name": "FlightStatusInfo",
      "type": "event"
    },
    {
      "anonymous": false,
      "inputs": [
        {
          "indexed": false,
          "internalType": "uint8",
          "name": "index",
          "type": "uint8"
        },
        {
          "indexed": false,
          "internalType": "string",
          "name": "flight",
          "type": "string"
        },
        {
          "indexed": false,
          "internalType": "uint256",
          "name": "timestamp",
          "type": "uint256"
        }
      ],
      "name": "OracleRequest",
      "type": "event"
    },
    {
      "inputs": [],
      "name": "REGISTRATION_FEE",
      "outputs": [
        {
          "internalType": "uint256",
          "name": "",
          "type": "uint256"
        }
      ],
      "stateMutability": "view",
      "type": "function"
    },
    {
      "inputs": [],
      "name": "registerOracle",
      "outputs": [],
      "stateMutability": "payable",
      "type": "function"
    },
    {
      "inputs": [
        {
          "internalType": "address",
          "name": "account",
          "type": "address"
        }
      ],
      "name": "getOracle",
      "outputs": [
        {
          "internalType": "uint8[3]",
          "name": "",
          "type": "uint8[3]"
        }
      ],
      "stateMutability": "view",
      "type": "function"
    },
    {
      "inputs": [
        {
          "internalType": "string",
          "name": "flight",
          "type": "string"
        },
        {
          "internalType": "uint256",
          "name": "timestamp",
          "type": "uint256"
        }
      ],
      "name": "fetchFlightStatus",
      "outputs": [],
      "stateMutability": "nonpayable",
      "type": "function"
    },
    {
      "inputs": [
        {
          "internalType": "uint8",
          "name": "index",
          "type": "uint8"
        },
        {
          "internalType": "string",
          "name": "flight",
          "type": "string"
        },
        {
          "internalType": "uint256",
          "name": "timestamp",
          "type": "uint256"
        },
        {
          "internalType": "uint8",
          "name": "statusId",
          "type": "uint8"
        }
      ],
      "name": "submitOracleResponse",
      "outputs": [],
      "stateMutability": "nonpayable",
      "type": "function"
    },
    {
      "inputs": [
        {
          "internalType": "string",
          "name": "flight",
          "type": "string"
        },
        {
          "internalType": "uint256",
          "name": "timestamp",
          "type": "uint256"
        }
      ],
      "name": "viewFlightStatus",
      "outputs": [
        {
          "internalType": "uint8",
          "name": "",
          "type": "uint8"
        }
      ],
      "stateMutability": "view",
      "type": "function"
    }
  ],
  "bytecode": "0x608060405260008060146101000a81548160ff021916908360ff16021790555034801561002b57600080fd5b50336000806101000a81548173ffffffffffffffffffffffffffffffffffffffff021916908373ffffffffffffffffffffffffffffffffffffffff16021790555061179d8061007b6000396000f3fe6080604052600436106100555760003560e01c806310d3d22e1461005a578063339d25901461009757806364b4f751146100a15780637b91ce38146100cc5780638ec0268b146100f5578063dc7044e11461011e575b600080fd5b34801561006657600080fd5b50610081600480360381019061007c9190610d52565b61015b565b60405161008e9190610e37565b60405180910390f35b61009f610299565b005b3480156100ad57600080fd5b506100b6610343565b6040516100c39190610e6b565b60405180910390f35b3480156100d857600080fd5b506100f360048036038101906100ee9190610ff8565b61034f565b005b34801561010157600080fd5b5061011c60048036038101906101179190611080565b610444565b005b34801561012a57600080fd5b5061014560048036038101906101409190610ff8565b610898565b6040516101529190611112565b60405180910390f35b610163610c07565b60008054906101000a900473ffffffffffffffffffffffffffffffffffffffff1673ffffffffffffffffffffffffffffffffffffffff163373ffffffffffffffffffffffffffffffffffffffff16146101f1576040517f08c379a00000000000000000000000000000000000000000000000000000000081526004016101e89061118a565b60405180910390fd5b600160008373ffffffffffffffffffffffffffffffffffffffff1673ffffffffffffffffffffffffffffffffffffffff16815260200190815260200160002060038060200260405190810160405280929190826003801561028d576020028201916000905b82829054906101000a900460ff1660ff16815260200190600101906020826000010492830192600103820291508084116102565790505b50505050509050919050565b670de0b6b3a76400003410156102e4576040517f08c379a00000000000000000000000000000000000000000000000000000000081526004016102db9061121c565b60405180910390fd5b60006102ef33610956565b905080600160003373ffffffffffffffffffffffffffffffffffffffff1673ffffffffffffffffffffffffffffffffffffffff16815260200190815260200160002090600361033f929190610c29565b5050565b670de0b6b3a764000081565b600061035a33610b3c565b9050600081848460405160200161037393929190611304565b6040516020818303038152906040528051906020012090506000600260008381526020019081526020016000209050338160000160006101000a81548173ffffffffffffffffffffffffffffffffffffffff021916908373ffffffffffffffffffffffffffffffffffffffff16021790555060018160000160146101000a81548160ff0219169083151502179055507f33cc1dc817476a865477242f5d168e635bcd483a67e12e1ebde698e1a9ec023a83868660405161043593929190611376565b60405180910390a15050505050565b8360ff16600160003373ffffffffffffffffffffffffffffffffffffffff1673ffffffffffffffffffffffffffffffffffffffff16815260200190815260200160002060006003811061049a576104996113b4565b5b602091828204019190069054906101000a900460ff1660ff16148061052b57508360ff16600160003373ffffffffffffffffffffffffffffffffffffffff1673ffffffffffffffffffffffffffffffffffffffff1681526020019081526020016000206001600381106105105761050f6113b4565b5b602091828204019190069054906101000a900460ff1660ff16145b806105a257508360ff16600160003373ffffffffffffffffffffffffffffffffffffffff1673ffffffffffffffffffffffffffffffffffffffff168152602001908152602001600020600260038110610587576105866113b4565b5b602091828204019190069054906101000a900460ff1660ff16145b6105e1576040517f08c379a00000000000000000000000000000000000000000000000000000000081526004016105d890611455565b60405180910390fd5b60008484846040516020016105f893929190611304565b604051602081830303815290604052805190602001209050600115156002600083815260200190815260200160002060000160149054906101000a900460ff1615151461067a576040517f08c379a0000000000000000000000000000000000000000000000000000000008152600401610671906114c1565b60405180910390fd5b6002600082815260200190815260200160002060010160008360ff1660ff168152602001908152602001600020339080600181540180825580915050600190039060005260206000200160009091909190916101000a81548173ffffffffffffffffffffffffffffffffffffffff021916908373ffffffffffffffffffffffffffffffffffffffff16021790555060036002600083815260200190815260200160002060010160008460ff1660ff16815260200190815260200160002080549050106108525760006002600083815260200190815260200160002060000160146101000a81548160ff0219169083151502179055507f2f1c265a6c6abb151887cacc1fd693a4c8dc417f3f955372b3632cdbc5ed7a4184848460016040516107a594939291906114fc565b60405180910390a1600084846040516020016107c2929190611548565b60405160208183030381529060405280519060200120905060405180604001604052806001151581526020018460ff168152506003600083815260200190815260200160002060008201518160000160006101000a81548160ff02191690831515021790555060208201518160000160016101000a81548160ff021916908360ff16021790555090505050610891565b7f2f1c265a6c6abb151887cacc1fd693a4c8dc417f3f955372b3632cdbc5ed7a41848484600060405161088894939291906114fc565b60405180910390a15b5050505050565b60008083836040516020016108ae929190611548565b6040516020818303038152906040528051906020012090506003600082815260200190815260200160002060000160009054906101000a900460ff16610929576040517f08c379a0000000000000000000000000000000000000000000000000000000008152600401610920906115bc565b60405180910390fd5b6003600082815260200190815260200160002060000160019054906101000a900460ff1691505092915050565b61095e610c07565b610966610c07565b61096f83610b3c565b81600060038110610983576109826113b4565b5b602002019060ff16908160ff1681525050806000600381106109a8576109a76113b4565b5b6020020151816001600381106109c1576109c06113b4565b5b602002019060ff16908160ff16815250505b806000600381106109e7576109e66113b4565b5b602002015160ff1681600160038110610a0357610a026113b4565b5b602002015160ff1603610a4357610a1983610b3c565b81600160038110610a2d57610a2c6113b4565b5b602002019060ff16908160ff16815250506109d3565b80600160038110610a5757610a566113b4565b5b602002015181600260038110610a7057610a6f6113b4565b5b602002019060ff16908160ff16815250505b80600060038110610a9657610a956113b4565b5b602002015160ff1681600260038110610ab257610ab16113b4565b5b602002015160ff161480610afb575080600160038110610ad557610ad46113b4565b5b602002015160ff1681600260038110610af157610af06113b4565b5b602002015160ff16145b15610b3357610b0983610b3c565b81600260038110610b1d57610b1c6113b4565b5b602002019060ff16908160ff1681525050610a82565b80915050919050565b600080600a905060008160ff166000601481819054906101000a900460ff1680929190610b689061160b565b91906101000a81548160ff021916908360ff16021790555060ff1643610b8e9190611634565b4085604051602001610ba19291906116db565b6040516020818303038152906040528051906020012060001c610bc49190611736565b905060fa600060149054906101000a900460ff1660ff161115610bfd5760008060146101000a81548160ff021916908360ff1602179055505b8092505050919050565b6040518060600160405280600390602082028036833780820191505090505090565b826003601f01602090048101928215610cb25791602002820160005b83821115610c8357835183826101000a81548160ff021916908360ff1602179055509260200192600101602081600001049283019260010302610c45565b8015610cb05782816101000a81549060ff0219169055600101602081600001049283019260010302610c83565b505b509050610cbf9190610cc3565b5090565b5b80821115610cdc576000816000905550600101610cc4565b5090565b6000604051905090565b600080fd5b600080fd5b600073ffffffffffffffffffffffffffffffffffffffff82169050919050565b6000610d1f82610cf4565b9050919050565b610d2f81610d14565b8114610d3a57600080fd5b50565b600081359050610d4c81610d26565b92915050565b600060208284031215610d6857610d67610cea565b5b6000610d7684828501610d3d565b91505092915050565b600060039050919050565b600081905092915050565b6000819050919050565b600060ff82169050919050565b610db581610d9f565b82525050565b6000610dc78383610dac565b60208301905092915050565b6000602082019050919050565b610de981610d7f565b610df38184610d8a565b9250610dfe82610d95565b8060005b83811015610e2f578151610e168782610dbb565b9650610e2183610dd3565b925050600181019050610e02565b505050505050565b6000606082019050610e4c6000830184610de0565b92915050565b6000819050919050565b610e6581610e52565b82525050565b6000602082019050610e806000830184610e5c565b92915050565b600080fd5b600080fd5b6000601f19601f8301169050919050565b7f4e487b7100000000000000000000000000000000000000000000000000000000600052604160045260246000fd5b610ed982610e90565b810181811067ffffffffffffffff82111715610ef857610ef7610ea1565b5b80604052505050565b6000610f0b610ce0565b9050610f178282610ed0565b919050565b600067ffffffffffffffff821115610f3757610f36610ea1565b5b610f4082610e90565b9050602081019050919050565b82818337600083830152505050565b6000610f6f610f6a84610f1c565b610f01565b905082815260208101848484011115610f8b57610f8a610e8b565b5b610f96848285610f4d565b509392505050565b600082601f830112610fb357610fb2610e86565b5b8135610fc3848260208601610f5c565b91505092915050565b610fd581610e52565b8114610fe057600080fd5b50565b600081359050610ff281610fcc565b92915050565b6000806040838503121561100f5761100e610cea565b5b600083013567ffffffffffffffff81111561102d5761102c610cef565b5b61103985828601610f9e565b925050602061104a85828601610fe3565b9150509250929050565b61105d81610d9f565b811461106857600080fd5b50565b60008135905061107a81611054565b92915050565b6000806000806080858703121561109a57611099610cea565b5b60006110a88782880161106b565b945050602085013567ffffffffffffffff8111156110c9576110c8610cef565b5b6110d587828801610f9e565b93505060406110e687828801610fe3565b92505060606110f78782880161106b565b91505092959194509250565b61110c81610d9f565b82525050565b60006020820190506111276000830184611103565b92915050565b600082825260208201905092915050565b7f43616c6c6572206973206e6f7420636f6e7472616374206f776e657200000000600082015250565b6000611174601c8361112d565b915061117f8261113e565b602082019050919050565b600060208201905081810360008301526111a381611167565b9050919050565b7f546f20726567697374657220616e206f7261636c652061207374616b65206f6660008201527f2031206574686572206973207265717569726564000000000000000000000000602082015250565b600061120660348361112d565b9150611211826111aa565b604082019050919050565b60006020820190508181036000830152611235816111f9565b9050919050565b60008160f81b9050919050565b60006112548261123c565b9050919050565b61126c61126782610d9f565b611249565b82525050565b600081519050919050565b600081905092915050565b60005b838110156112a657808201518184015260208101905061128b565b60008484015250505050565b60006112bd82611272565b6112c7818561127d565b93506112d7818560208601611288565b80840191505092915050565b6000819050919050565b6112fe6112f982610e52565b6112e3565b82525050565b6000611310828661125b565b60018201915061132082856112b2565b915061132c82846112ed565b602082019150819050949350505050565b600061134882611272565b611352818561112d565b9350611362818560208601611288565b61136b81610e90565b840191505092915050565b600060608201905061138b6000830186611103565b818103602083015261139d818561133d565b90506113ac6040830184610e5c565b949350505050565b7f4e487b7100000000000000000000000000000000000000000000000000000000600052603260045260246000fd5b7f496e64657820646f6573206e6f74206d61746368206f7261636c65207265717560008201527f6573740000000000000000000000000000000000000000000000000000000000602082015250565b600061143f60238361112d565b915061144a826113e3565b604082019050919050565b6000602082019050818103600083015261146e81611432565b9050919050565b7f5265717565737420616c726561647920636c6f73650000000000000000000000600082015250565b60006114ab60158361112d565b91506114b682611475565b602082019050919050565b600060208201905081810360008301526114da8161149e565b9050919050565b60008115159050919050565b6114f6816114e1565b82525050565b60006080820190508181036000830152611516818761133d565b90506115256020830186610e5c565b6115326040830185611103565b61153f60608301846114ed565b95945050505050565b600061155482856112b2565b915061156082846112ed565b6020820191508190509392505050565b7f466c6967687420737461747573206e6f7420617661696c61626c650000000000600082015250565b60006115a6601b8361112d565b91506115b182611570565b602082019050919050565b600060208201905081810360008301526115d581611599565b9050919050565b7f4e487b7100000000000000000000000000000000000000000000000000000000600052601160045260246000fd5b600061161682610d9f565b915060ff8203611629576116286115dc565b5b600182019050919050565b600061163f82610e52565b915061164a83610e52565b9250828203905081811115611662576116616115dc565b5b92915050565b6000819050919050565b6000819050919050565b61168d61168882611668565b611672565b82525050565b60008160601b9050919050565b60006116ab82611693565b9050919050565b60006116bd826116a0565b9050919050565b6116d56116d082610d14565b6116b2565b82525050565b60006116e7828561167c565b6020820191506116f782846116c4565b6014820191508190509392505050565b7f4e487b7100000000000000000000000000000000000000000000000000000000600052601260045260246000fd5b600061174182610e52565b915061174c83610e52565b92508261175c5761175b611707565b5b82820690509291505056fea264697066735822122070b06a88e285097b00316dc66e284cf78349d5c6928b5c36f8f4b0c0bd46ce7064736f6c63430008100033",
  "immutableReferences": {},
  "source": "// SPDX-License-Identifier: MIT\npragma solidity ^0.8.16;\n\nimport \"@openzeppelin/contracts/utils/math/SafeMath.sol\";\n\ncontract Oracles {\n\n    // Allow SafeMath functions to be called for all uint256 types (similar to \"prototype\" in Javascript)\n    using SafeMath for uint256; \n\n    // Account used to deploy contract\n    address private contractOwner;                  \n    // Incremented to add pseudo-randomness at various points\n    uint8 private nonce = 0;    \n    // Fee to be paid when registering oracle\n    uint256 public constant REGISTRATION_FEE = 1 ether;\n    // Number of oracles that must respond for valid status\n    uint256 private constant MIN_RESPONSES = 3;\n    // Status codes returned by oracles\n    uint8 private constant ON_TIME = 10;\n    uint8 private constant NOT_ON_TIME = 99;\n\n    // Track all registered oracles\n    mapping(address => uint8[3]) private oracles;\n    // Model for responses from oracles\n    struct ResponseInfo {\n        address requester;                              // Account that requested status\n        bool isOpen;                                    // If open, oracle responses are accepted\n        mapping(uint8 => address[]) responses;          // Mapping key is the status code reported\n                                                        // This lets us group responses and identify\n                                                        // the response that majority of the oracles\n                                                        // submit\n    }\n    // Track all oracle responses\n    // Key = hash(index, flight, timestamp)\n    mapping(bytes32 => ResponseInfo) private oracleResponses;\n\n\n    // Flight data persisted forever\n    struct FlightStatus {\n        bool hasStatus;\n        uint8 status;        \n    }\n    mapping(bytes32 => FlightStatus) flights;\n\n    constructor () {\n        contractOwner = msg.sender;\n    }\n   \n    /********************************************************************************************/\n    /*                                     SMART CONTRACT MODIFIERS                             */\n    /********************************************************************************************/\n    modifier requireContractOwner() {\n        require(msg.sender == contractOwner, \"Caller is not contract owner\");\n        _;\n    }\n    /********************************************************************************************/\n    /*                                     SMART CONTRACT EVENTS                                */\n    /********************************************************************************************/\n    // Event fired each time an oracle submits a response\n    event FlightStatusInfo(string flight, uint256 timestamp, uint8 status, bool verified);\n\n    // Event fired when flight status request is submitted\n    // Oracles track this and if they have a matching index they fetch data and submit a response\n    event OracleRequest(uint8 index, string flight, uint256 timestamp);\n\n    /********************************************************************************************/\n    /*                                     SMART CONTRACT FUNCTIONS                             */\n    /********************************************************************************************/\n    function registerOracle () external payable {\n        // Require registration fee\n        require (msg.value >= REGISTRATION_FEE, \"To register an oracle a stake of 1 ether is required\");\n        // Generate three random indexes (range 0-9) using generateIndexes for the calling oracle\n        uint8[3] memory indexes = generateIndexes(msg.sender);\n        // Assign the indexes to the oracle and save to the contract state\n        oracles[msg.sender] = indexes;\n    }\n\n    function getOracle (address account) external view requireContractOwner returns(uint8[3] memory) {\n        return oracles[account];\n    }\n\n    function fetchFlightStatus (string memory flight, uint256 timestamp) external {\n        // Generate index with a random index based on the calling account\n        uint8 index = getRandomIndex(msg.sender);\n        // Generate a unique key for storing the request\n        bytes32 key = keccak256(abi.encodePacked(index, flight, timestamp));\n        ResponseInfo storage newResponseInfo = oracleResponses[key];\n        newResponseInfo.requester = msg.sender;\n        newResponseInfo.isOpen = true;\n        // Notify oracles that match the index value that they need to fetch flight status\n        emit OracleRequest(index, flight, timestamp);\n    }\n\n    // Called by oracle when a response is available to an outstanding request\n    // For the response to be accepted, there must be a pending request that is open\n    // and matches one of the three Indexes randomly assigned to the oracle at the\n    // time of registration (i.e. uninvited oracles are not welcome)\n    function submitOracleResponse (uint8 index, string memory flight, uint256 timestamp, uint8 statusId) external {\n        require((oracles[msg.sender][0] == index) || (oracles[msg.sender][1] == index) || (oracles[msg.sender][2] == index), \"Index does not match oracle request\");\n        // Require that the response is being submitted for a request that is still open\n        bytes32 key = keccak256(abi.encodePacked(index, flight, timestamp));\n        require(oracleResponses[key].isOpen == true, \"Request already close\");\n        // Push response\n        oracleResponses[key].responses[statusId].push(msg.sender);\n        // Information isn't considered verified until at least MIN_RESPONSES oracles respond with the same information\n        if (oracleResponses[key].responses[statusId].length >= MIN_RESPONSES) {\n            // Prevent any more responses since MIN_RESPONSE threshold has been reached\n            oracleResponses[key].isOpen = false;\n            // Announce to the world that verified flight status information is available\n            emit FlightStatusInfo(flight, timestamp, statusId, true);\n            // Save the flight information for posterity\n            bytes32 flightKey = keccak256(abi.encodePacked(flight, timestamp));\n            flights[flightKey] = FlightStatus(true, statusId);\n        } else {\n            //  Announce to the world that NON-verified flight status information is available\n            emit FlightStatusInfo(flight, timestamp, statusId, false);\n        }\n    }\n\n    // Query the status of any flight\n    function viewFlightStatus (string memory flight, uint256 timestamp) external view returns(uint8) {\n            bytes32 flightKey = keccak256(abi.encodePacked(flight, timestamp));\n            require(flights[flightKey].hasStatus, \"Flight status not available\");\n            return flights[flightKey].status;\n    }\n\n    // Returns array of three non-duplicating integers from 0-9\n    function generateIndexes (address account) internal returns(uint8[3] memory) {\n        uint8[3] memory indexes;\n        \n        indexes[0] = getRandomIndex(account);\n\n        indexes[1] = indexes[0];\n        while(indexes[1] == indexes[0]) {\n            indexes[1] = getRandomIndex(account);\n        }\n\n        indexes[2] = indexes[1];\n        while((indexes[2] == indexes[0]) || (indexes[2] == indexes[1])) {\n            indexes[2] = getRandomIndex(account);\n        }\n\n        return indexes;\n    }\n\n    // Returns array of three non-duplicating integers from 0-9\n    function getRandomIndex (address account) internal returns (uint8) {\n        uint8 maxValue = 10;\n        // Pseudo random number...the incrementing nonce adds variation\n        uint8 random = uint8(uint256(keccak256(abi.encodePacked(blockhash(block.number - nonce++), account))) % maxValue);\n        if (nonce > 250) {\n            nonce = 0;  // Can only fetch blockhashes for last 256 blocks so we adapt\n        }\n        return random;\n    }\n}",
  "sourcePath": "/home/isma/Desktop/code/blockchain/SolidityBestPractices/contracts/Oracles/Oracles.sol",
  "compiler": {
    "name": "solc",
    "version": "0.8.16+commit.07a7930e.Emscripten.clang"
  },
  "schemaVersion": "3.4.9",
  "updatedAt": "2022-09-11T10:38:30.450Z",
  "devdoc": {
    "kind": "dev",
    "methods": {},
    "version": 1
  },
  "userdoc": {
    "kind": "user",
    "methods": {},
    "version": 1
  }
}