{
  "contractName": "RateLimit",
  "abi": [
    {
      "inputs": [],
      "name": "deposit",
      "outputs": [],
      "stateMutability": "payable",
      "type": "function",
      "payable": true
    },
    {
      "inputs": [
        {
          "internalType": "uint256",
          "name": "amount",
          "type": "uint256"
        }
      ],
      "name": "safeWithdraw",
      "outputs": [],
      "stateMutability": "nonpayable",
      "type": "function"
    }
  ],
  "bytecode": "0x60806040524260015534801561001457600080fd5b50610592806100246000396000f3fe6080604052600436106100295760003560e01c8063b0fd035b1461002e578063d0e30db014610057575b600080fd5b34801561003a57600080fd5b5061005560048036038101906100509190610343565b610061565b005b61005f610285565b005b6107086001544210156100a9576040517f08c379a00000000000000000000000000000000000000000000000000000000081526004016100a0906103cd565b60405180910390fd5b6100b5600154826102dc565b6001819055503273ffffffffffffffffffffffffffffffffffffffff163373ffffffffffffffffffffffffffffffffffffffff1614610129576040517f08c379a000000000000000000000000000000000000000000000000000000000815260040161012090610439565b60405180910390fd5b816000803373ffffffffffffffffffffffffffffffffffffffff1673ffffffffffffffffffffffffffffffffffffffff1681526020019081526020016000205410156101aa576040517f08c379a00000000000000000000000000000000000000000000000000000000081526004016101a1906104a5565b60405180910390fd5b60006101f46000803373ffffffffffffffffffffffffffffffffffffffff1673ffffffffffffffffffffffffffffffffffffffff16815260200190815260200160002054846102f2565b9050806000803373ffffffffffffffffffffffffffffffffffffffff1673ffffffffffffffffffffffffffffffffffffffff168152602001908152602001600020819055503373ffffffffffffffffffffffffffffffffffffffff166108fc849081150290604051600060405180830381858888f1935050505015801561027f573d6000803e3d6000fd5b50505050565b346000803373ffffffffffffffffffffffffffffffffffffffff1673ffffffffffffffffffffffffffffffffffffffff16815260200190815260200160002060008282546102d391906104f4565b92505081905550565b600081836102ea91906104f4565b905092915050565b600081836103009190610528565b905092915050565b600080fd5b6000819050919050565b6103208161030d565b811461032b57600080fd5b50565b60008135905061033d81610317565b92915050565b60006020828403121561035957610358610308565b5b60006103678482850161032e565b91505092915050565b600082825260208201905092915050565b7f52617465206c696d6974696e6720696e20656666656374000000000000000000600082015250565b60006103b7601783610370565b91506103c282610381565b602082019050919050565b600060208201905081810360008301526103e6816103aa565b9050919050565b7f436f6e747261637473206e6f7420616c6c6f7765640000000000000000000000600082015250565b6000610423601583610370565b915061042e826103ed565b602082019050919050565b6000602082019050818103600083015261045281610416565b9050919050565b7f496e73756666696369656e742066756e64730000000000000000000000000000600082015250565b600061048f601283610370565b915061049a82610459565b602082019050919050565b600060208201905081810360008301526104be81610482565b9050919050565b7f4e487b7100000000000000000000000000000000000000000000000000000000600052601160045260246000fd5b60006104ff8261030d565b915061050a8361030d565b9250828201905080821115610522576105216104c5565b5b92915050565b60006105338261030d565b915061053e8361030d565b9250828203905081811115610556576105556104c5565b5b9291505056fea26469706673582212206fab6168885a0bd41cd96100adb530e93438949e2ebf903968cef1bbb45eee5664736f6c63430008100033",
  "immutableReferences": {},
  "source": "// SPDX-License-Identifier: MIT\npragma solidity ^0.8.16;\n\nimport \"@openzeppelin/contracts/utils/math/SafeMath.sol\";\n \ncontract RateLimit {\n \n    mapping(address=>uint) shares;\n\n    uint256 enabled = block.timestamp;\n    \n    modifier rateLimit(uint time) {\n        require(block.timestamp >= enabled, \"Rate limiting in effect\");\n        enabled = SafeMath.add(enabled, time);\n        _;\n    }\n\n    function deposit() public payable {\n        //uint256 newBalance = SafeMath.add(shares[msg.sender], msg.value);\n        shares[msg.sender] += msg.value;\n    }\n\n    function safeWithdraw(uint256 amount) public rateLimit(30 minutes) {\n        // Checks\n        require(msg.sender == tx.origin, \"Contracts not allowed\");\n        require(shares[msg.sender] >= amount, \"Insufficient funds\");\n        // Effects\n        uint256 newBalance = SafeMath.sub(shares[msg.sender], amount);\n        shares[msg.sender] = newBalance;\n        // Interaction\n        payable((msg.sender)).transfer(amount);\n    }\n}",
  "sourcePath": "/home/isma/Desktop/code/blockchain/SolidityBestPractices/contracts/RateLimit.sol",
  "compiler": {
    "name": "solc",
    "version": "0.8.16+commit.07a7930e.Emscripten.clang"
  },
  "schemaVersion": "3.4.9",
  "updatedAt": "2022-09-04T07:18:42.117Z",
  "networkType": "ethereum",
  "devdoc": {
    "kind": "dev",
    "methods": {},
    "version": 1
  },
  "userdoc": {
    "kind": "user",
    "methods": {},
    "version": 1
  }
}