{
  "contractName": "ReentrancyGuard",
  "abi": [
    {
      "inputs": [
        {
          "internalType": "uint256",
          "name": "amount",
          "type": "uint256"
        }
      ],
      "name": "safeWithdraw",
      "outputs": [],
      "stateMutability": "nonpayable",
      "type": "function"
    }
  ],
  "bytecode": "0x6080604052600160005534801561001557600080fd5b50610241806100256000396000f3fe608060405234801561001057600080fd5b506004361061002b5760003560e01c8063b0fd035b14610030575b600080fd5b61004a600480360381019061004591906100fe565b61004c565b005b61005960005460016100ad565b60008190555060008054905060005481146100a9576040517f08c379a00000000000000000000000000000000000000000000000000000000081526004016100a090610188565b60405180910390fd5b5050565b600081836100bb91906101d7565b905092915050565b600080fd5b6000819050919050565b6100db816100c8565b81146100e657600080fd5b50565b6000813590506100f8816100d2565b92915050565b600060208284031215610114576101136100c3565b5b6000610122848285016100e9565b91505092915050565b600082825260208201905092915050565b7f52656e6e7472616e6379206775617264206661696c7300000000000000000000600082015250565b600061017260168361012b565b915061017d8261013c565b602082019050919050565b600060208201905081810360008301526101a181610165565b9050919050565b7f4e487b7100000000000000000000000000000000000000000000000000000000600052601160045260246000fd5b60006101e2826100c8565b91506101ed836100c8565b9250828201905080821115610205576102046101a8565b5b9291505056fea264697066735822122028376b4e5ec404ee2b7d9983c6c7fcc979b785d2566cb6b768762e07069ec08b64736f6c63430008100033",
  "immutableReferences": {},
  "source": "// SPDX-License-Identifier: MIT\npragma solidity ^0.8.16;\n\nimport \"@openzeppelin/contracts/utils/math/SafeMath.sol\";\n\ncontract ReentrancyGuard {\n    uint256 private counter = 1;\n\n    modifier entrancyGuard() {\n        counter = SafeMath.add(counter, 1);\n        uint256 localCounter = counter;\n        _;\n        require(localCounter == counter, \"Renntrancy guard fails\");\n    }\n\n    function safeWithdraw(uint256 amount) external entrancyGuard {\n        // ...\n    }\n}",
  "sourcePath": "/home/isma/Desktop/code/blockchain/SolidityBestPractices/contracts/ReentrancyGuard.sol",
  "compiler": {
    "name": "solc",
    "version": "0.8.16+commit.07a7930e.Emscripten.clang"
  },
  "schemaVersion": "3.4.9",
  "updatedAt": "2022-09-09T22:50:57.861Z",
  "devdoc": {
    "kind": "dev",
    "methods": {},
    "version": 1
  },
  "userdoc": {
    "kind": "user",
    "methods": {},
    "version": 1
  }
}